S00C000048564D542E73726563D9
S113000091C00000AEC00000ACC00000AAC0000057
S1130010A8C00000A6C00000A4C00000A2C0000048
S1130020A0C000000C94C4149CC000009AC000003E
S113003098C0000096C0000094C0000092C0000068
S113004090C000008EC000000C94740B8AC00000A5
S113005088C000000C94D0150C94871582C0000051
S113006080C000007EC000007CC000007AC0000098
S113007078C0000076C0000074C0000072C00000A8
S11300800C9455160C940C166CC000006AC0000049
S113009068C00000C70E3710E30E37103710371052
S11300A03710371037103710371037103710371014
S11300B0371037103710EC0E3710F50E3710FF0ECF
S11300C02B0F490F580FD50F3710FE0F371037106D
S11300D02E101F106115641567156A156D157015BE
S11300E073157615201A2C1A301A821A821A821A5B
S11300F0821A821A821A821A821A821A821A821A1C
S1130100821A821A821A341A821A381A821A3C1AE9
S1130110401A6A1A6E1A721A821A761A821A821A85
S11301207E1A7A1A11241FBECFEFD0E1DEBFCDBFF5
S113013012E0A0E0B1E0E8E3FEE300E00BBF02C0A0
S113014007900D92AE38B107D9F729E0AEE8B2E0D6
S113015001C01D92AD3EB207E1F70E9420190C9434
S11301601A1F4ECFCF93DF9300D01F92CDB7DEB7C7
S113017089837B836A838981482F50E08A819B81AC
S1130180FC018081282F30E068E3649FC001659FF3
S1130190900D11248D529D4FFC0131832083898160
S11301A0482F50E08981282F30E068E3629FC00126
S11301B0639F900D11248D529D4FFC01808191818C
S11301C02A813B812F5F3F4FF9012081222F30E0AC
S11301D0322F2227282B392B68E3649FC001659FA7
S11301E0900D11248D529D4FFC0131832083898110
S11301F0482F50E08A819B810296FC018081282F40
S113020030E068E3649FC001659F900D11248B5218
S11302109D4FFC01318320838981482F50E08981DF
S1130220282F30E068E3629FC001639F900D112482
S11302308B529D4FFC01808191812A813B812D5FEE
S11302403F4FF9012081222F30E0322F2227282B23
S1130250392B68E3649FC001659F900D11248B5274
S11302609D4FFC01318320838981482F50E08A818E
S11302709B810496FC018081282F30E068E3649F11
S1130280C001659F900D112489529D4FFC0131835B
S113029020838981482F50E08981282F30E068E34A
S11302A0629FC001639F900D112489529D4FFC01F0
S11302B0808191812A813B812B5F3F4FF90120810D
S11302C0222F30E0322F2227282B392B68E3649F1A
S11302D0C001659F900D112489529D4FFC0131830B
S11302E020838981482F50E08A819B810696FC01F6
S11302F08081282F30E068E3649FC001659F900DE2
S1130300112487529D4FFC01318320838981482F1A
S113031050E08981282F30E068E3629FC001639F29
S1130320900D112487529D4FFC01808191812A8177
S11303303B81295F3F4FF9012081222F30E0322F8A
S11303402227282B392B68E3649FC001659F900DF9
S1130350112487529D4FFC013183208300000F90AC
S11303600F900F90DF91CF910895CF93DF9300D03A
S11303701F92CDB7DEB789837B836A838981282F57
S113038030E08A819B81FC018081482F417058E3D1
S1130390529FC001539F900D112489509D4FFC0121
S11303A040838981282F30E08A819B81FC018081F0
S11303B08695482F417058E3529FC001539F900D7A
S11303C0112488509D4FFC0140838981282F30E0FF
S11303D08A819B81FC01808186958695482F417096
S11303E058E3529FC001539F900D112487509D4F95
S11303F0FC0140838981282F30E08A819B81FC01A4
S11304008081869586958695482F417058E3529F42
S1130410C001539F900D112486509D4FFC014083D1
S11304208981282F30E08A819B810196FC0180819B
S1130430482F417058E3529FC001539F900D1124DF
S113044085509D4FFC0140838981282F30E08A81AB
S11304509B810196FC0180818695482F417058E369
S1130460529FC001539F900D112484509D4FFC0155
S113047040838981282F30E08A819B810196FC0189
S1130480808186958695482F417058E3529FC0011C
S1130490539F900D112483509D4FFC01408389810B
S11304A0282F30E08A819B810196FC01808186950A
S11304B086958695482F417058E3529FC001539FFB
S11304C0900D112482509D4FFC0140838981282F77
S11304D030E08A819B810196FC01808182958F7036
S11304E0482F417058E3529FC001539F900D11242F
S11304F081509D4FFC0140838981282F30E08A81FF
S11305009B810296FC01408158E3529FC001539F96
S1130510900D112480509D4FFC0140838981282F28
S113052030E08A819B810396FC01408158E3529F0D
S1130530C001539F900D11248F5F9C4FFC01408399
S11305408981482F50E08A819B810496FC01808137
S1130550882F90E09C012F71332768E3649FC001CA
S1130560659F900D11248E5F9C4FFC013183208385
S11305708981482F50E08A819B810596FC01808106
S1130580282F30E068E3649FC001659F900D11241B
S11305908C5F9C4FFC01318320838981482F50E07C
S11305A08981282F30E068E3629FC001639F900D2A
S11305B011248C5F9C4FFC01808191812A813B81B5
S11305C02A5F3F4FF9012081222F30E0322F22276A
S11305D0282B392B68E3649FC001659F900D11247B
S11305E08C5F9C4FFC01318320838981282F30E06C
S11305F048E3429FC001439F900D11248C5F9C4FA0
S1130600FC0180819181892BF1F08981482F50E090
S11306108981282F30E068E3629FC001639F900DB9
S113062011248E5F9C4FFC01808191819C0120628A
S113063068E3649FC001659F900D11248E5F9C4FF9
S1130640FC013183208300000F900F900F90DF9105
S1130650CF910895CF93DF9300D01F92CDB7DEB72B
S113066089837B836A838981482F50E08A819B81B7
S1130670FC018081282F30E068E3649FC001659FFE
S1130680900D11248D519D4FFC013183208389816C
S1130690482F50E08981282F30E068E3629FC00131
S11306A0639F900D11248D519D4FFC018081918198
S11306B02A813B812F5F3F4FF9012081222F30E0B7
S11306C0322F2227282B392B68E3649FC001659FB2
S11306D0900D11248D519D4FFC013183208389811C
S11306E0482F50E08A819B810496FC018081282F49
S11306F030E068E3649FC001659F900D1124895127
S11307009D4FFC01318320838981482F50E08981EA
S1130710282F30E068E3629FC001639F900D11248D
S113072089519D4FFC01808191812A813B812B5FFE
S11307303F4FF9012081222F30E0322F2227282B2E
S1130740392B68E3649FC001659F900D1124895182
S11307509D4FFC013183208300000F900F900F9078
S1130760DF91CF910895CF93DF9300D01F92CDB73F
S1130770DEB789837B836A838981482F50E08A812D
S11307809B81FC018081282F30E068E3649FC001D5
S1130790659F900D112485519D4FFC013183208369
S11307A08981482F50E08981282F30E068E3629FD7
S11307B0C001639F900D112485519D4FFC018081E0
S11307C091812A813B812F5F3F4FF9012081222FA4
S11307D030E0322F2227282B392B68E3649FC00195
S11307E0659F900D112485519D4FFC013183208319
S11307F08981482F50E08A819B810496FC01808185
S1130800282F30E068E3649FC001659F900D112498
S113081083519D4FFC01318320838981482F50E00F
S11308208981282F30E068E3629FC001639F900DA7
S1130830112483519D4FFC01808191812A813B8148
S11308402B5F3F4FF9012081222F30E0322F2227E6
S1130850282B392B68E3649FC001659F900D1124F8
S113086083519D4FFC013183208300000F900F9032
S11308700F90DF91CF910895CF93DF9300D01F9213
S1130880CDB7DEB789837B836A838981482F50E0A3
S11308908A819B81FC018081282F30E068E3649F7A
S11308A0C001659F900D112481519D4FFC0131833E
S11308B020838981482F50E08981282F30E068E324
S11308C0629FC001639F900D112481519D4FFC01D3
S11308D0808191812A813B812F5F3F4FF9012081E3
S11308E0222F30E0322F2227282B392B68E3649FF4
S11308F0C001659F900D112481519D4FFC013183EE
S113090020838981482F50E08A819B810496FC01D1
S11309108081282F30E068E3649FC001659F900DBB
S113092011248D509D4FFC01318320838981482FF0
S113093050E08981282F30E068E3629FC001639F03
S1130940900D11248D509D4FFC01808191812A814D
S11309503B812B5F3F4FF9012081222F30E0322F62
S11309602227282B392B68E3649FC001659F900DD3
S113097011248D509D4FFC013183208300000F9082
S11309800F900F90DF91CF910895CF93DF93CDB760
S1130990DEB76D970FB6F894DEBF0FBECDBF8D8F57
S11309A08EE091E0A0E0B0E089839A83AB83BC83BE
S11309B01D828AEF8E838BEE8F838091D302909178
S11309C0D40288878091D3029091D402892F9927E9
S11309D089871A861B861C861D8688E08E878EE092
S11309E092E0A0E0B0E08F87988BA98BBA8B1B8A2A
S11309F08AEF8C8B8BEE8D8B80910B0390910C0383
S1130A008E8B80910B0390910C03892F99278F8BE8
S1130A10188E198E1A8E1B8E88E08C8F8D8D8823EC
S1130A2021F4CE01019606D506C08D8D813019F4CE
S1130A30CE010F96FFD400006D960FB6F894DEBF7A
S1130A400FBECDBFDF91CF910895CF93DF93CDB784
S1130A50DEB76D970FB6F894DEBF0FBECDBF8D8F96
S1130A602EE0CE010196FC01322F11923A95E9F75E
S1130A708AE091E0A0E0B0E089839A83AB83BC83F1
S1130A808AEF8E838BEE8F838CED888780E1898754
S1130A9088E08E872EE0CE010F96FC01322F119252
S1130AA03A95E9F78AE092E0A0E0B0E08F87988B6E
S1130AB0A98BBA8B8AEF8C8B8BEE8D8B8CED8E8B06
S1130AC080E18F8B88E08C8F8D8D882321F4CE017B
S1130AD00196B0D406C08D8D813019F4CE010F96E5
S1130AE0A9D400006D960FB6F894DEBF0FBECDBF3B
S1130AF0DF91CF910895CF93DF93CDB7DEB76D9794
S1130B000FB6F894DEBF0FBECDBF8D8F2EE0CE01A1
S1130B100196FC01322F11923A95E9F78AE091E0AF
S1130B20A0E0B0E089839A83AB83BC838AEF8E8391
S1130B308BEE8F838CED888781E1898788E08E87AF
S1130B402EE0CE010F96FC01322F11923A95E9F76F
S1130B508AE092E0A0E0B0E08F87988BA98BBA8BF3
S1130B608AEF8C8B8BEE8D8B8CED8E8B81E18F8B52
S1130B7088E08C8F8D8D882321F4CE0101965AD480
S1130B8006C08D8D813019F4CE010F9653D4000028
S1130B906D960FB6F894DEBF0FBECDBFDF91CF9137
S1130BA00895CF93DF9300D000D0CDB7DEB78C8308
S1130BB088ED90E021E0FC01208388ED90E028EDB1
S1130BC030E0F90120812260FC0120838C81882F90
S1130BD090E08330910599F18430910534F48130AB
S1130BE0910571F00297D9F06AC08530910509F436
S1130BF046C0853091059CF1069709F450C05FC04A
S1130C0082EE90E0FC01108283EE90E02CE0FC0187
S1130C10208384EE90E027E3FC01208350C082EE21
S1130C2090E022E0FC01208383EE90E02CE0FC01C4
S1130C30208384EE90E027E3FC01208340C082EE11
S1130C4090E026E0FC01208383EE90E02CE0FC01A0
S1130C50208384EE90E027E3FC01208330C082EE01
S1130C6090E028E0FC01208383EE90E02CE0FC017E
S1130C70208384EE90E027E3FC01208320C082EEF1
S1130C8090E02EE0FC01208383EE90E02CE0FC0158
S1130C90208384EE90E027E3FC01208310C082EEE1
S1130CA090E022E1FC01208383EE90E02CE0FC0143
S1130CB0208384EE90E027E3FC0120830000198266
S1130CC071C08DEE90E029812295207FFC01208364
S1130CD08FEE90E0FC0110828EEE90E0FC01108219
S1130CE083EF90E0FC01108282EF90E0FC0110821F
S1130CF087EF90E0FC01108286EF90E0FC01108207
S1130D0084EF90E021E0FC0120838FEE90E02FEE51
S1130D1030E0F90120812860FC0120838FEE90E00F
S1130D202FEE30E0F90120812F7EFC0120838FEE2D
S1130D3090E02FEE30E0F90120812068FC0120834F
S1130D4089818830A8F48EED90E02EED30E0F90131
S1130D502081622F2981422F50E021E030E002C03F
S1130D60220F331F4A95E2F7262BFC01208317C07C
S1130D708FED90E02FED30E0F9012081622F298181
S1130D80222F30E0A9014850510921E030E002C08F
S1130D90220F331F4A95E2F7262BFC012083898119
S1130DA08F5F89838981853008F48BCF85E08A83BE
S1130DB07DC08DEE90E02A812295207FFC01208366
S1130DC08FEE90E0FC0110828EEE90E0FC01108228
S1130DD083EF90E0FC01108282EF90E0FC0110822E
S1130DE081EF90E0FC01108280EF90E0FC01108222
S1130DF087EF90E0FC01108286EF90E0FC01108206
S1130E0085EF90E0FC01108284EF90E021E0FC018A
S1130E1020838FEE90E02FEE30E0F90120812860EE
S1130E20FC0120838FEE90E02FEE30E0F901208169
S1130E302061FC0120838FEE90E02FEE30E0F90179
S1130E4020812068FC0120838A818830A8F48EEDFB
S1130E5090E02EED30E0F9012081622F2A81422FAB
S1130E6050E021E030E002C0220F331F4A95E2F740
S1130E70262BFC01208317C08FED90E02FED30E08E
S1130E80F9012081622F2A81222F30E0A9014850E4
S1130E90510921E030E002C0220F331F4A95E2F7E6
S1130EA0262BFC0120838A818F5F8A838A818A3082
S1130EB008F47FCF8AE08B8341C08DEE90E02B81D4
S1130EC02295207FFC0120838EEE90E0FC011082AD
S1130ED08FEE90E0FC0110828B818830A8F48EEDB7
S1130EE090E02EED30E0F9012081622F2B81422F1A
S1130EF050E021E030E002C0220F331F4A95E2F7B0
S1130F00262BFC01208317C08FED90E02FED30E0FD
S1130F10F9012081622F2B81222F30E0A901485052
S1130F20510921E030E002C0220F331F4A95E2F755
S1130F30262BFC0120838B818F5F8B838B818F30E9
S1130F4008F4BBCF000089ED90E0FC018081882F7C
S1130F5090E084709927892BB1F38BED90E02BED11
S1130F6030E0F9012081206BFC01208300000F9008
S1130F700F900F900F90DF91CF910895CF93DF934F
S1130F8000D0CDB7DEB71A8220918E0230918F0245
S1130F9080919002909191022817390709F444C274
S1130FA08DEE90E0FC0180818A838AE0898333C2DC
S1130FB08DEE90E029812295207FFC0120838FEE25
S1130FC090E0FC018081882309F022C28091900284
S1130FD0909191029C01C901880F991F9C01C9013C
S1130FE0880F991F880F991F880F991F821B930BD5
S1130FF08B55994FFC018081882309F49BC043EFF2
S113100050E080919002909191029C01C901880F57
S1131010991F9C01C901880F991F880F991F880F78
S1131020991F821B930B8F55994FFC0180819181ED
S1131030A281B381072E75E1B695A79597958795FB
S11310407A95D1F7702DFA01808342EF50E08091B8
S11310509002909191029C01C901880F991F9C01F3
S1131060C901880F991F880F991F880F991F821B28
S1131070930B8F55994FFC0180819181A281B3819B
S1131080072E7DE0B695A795979587957A95D1F724
S1131090702DFA01808341EF50E08091900290918D
S11310A091029C01C901880F991F9C01C901880FF5
S11310B0991F880F991F880F991F821B930B8F55B7
S11310C0994FFC0180819181A281B381689414F8C5
S11310D0B695A795979587951694D1F7FA018083CD
S11310E040EF50E080919002909191029C01C901DF
S11310F0880F991F9C01C901880F991F880F991F98
S1131100880F991F821B930B8F55994FFC01808187
S11311109181A281B381880F880F880FFA0180839F
S11311208FEE90E02FEE30E0F90120812061FC0188
S1131130208356C043EF50E0809190029091910239
S11311409C01C901880F991F9C01C901880F991F2F
S1131150880F991F880F991F821B930B8F55994FE6
S1131160FC0180819181A281B381689412F8B695C3
S1131170A795979587951694D1F7FA01808342EF46
S113118050E080919002909191029C01C901880FD6
S1131190991F9C01C901880F991F880F991F880FF7
S11311A0991F821B930B8F55994FFC01808191816C
S11311B0A281B3818295880F807EFA01808381EFBA
S11311C090E0FC01108280EF90E0FC0110828FEE31
S11311D090E02FEE30E0F90120812F7EFC01208386
S11311E080919002909191029C01C901880F991FEE
S11311F09C01C901880F991F880F991F880F991F97
S1131200821B930B8255994FFC0140818FEE90E035
S11312102FEE30E0F9012081242BFC0120834AEFDA
S113122050E080919002909191029C01C901880F35
S1131230991F9C01C901880F991F880F991F880F56
S1131240991F821B930B8A55994FFC018081FA01E7
S113125080834AEF50E080919002909191029C012A
S1131260C901880F991F9C01C901880F991F880F14
S1131270991F880F991F821B930B8955994FFC0165
S11312808081FA0180834AEF50E08091900290912E
S113129091029C01C901880F991F9C01C901880F03
S11312A0991F880F991F880F991F821B930B8855CC
S11312B0994FFC018081FA0180834AEF50E08091CC
S11312C09002909191029C01C901880F991F9C0181
S11312D0C901880F991F880F991F880F991F821BB6
S11312E0930B8755994FFC018081FA0180834AEF63
S11312F050E080919002909191029C01C901880F65
S1131300991F9C01C901880F991F880F991F880F85
S1131310991F821B930B8655994FFC018081FA011A
S113132080834AEF50E080919002909191029C0159
S1131330C901880F991F9C01C901880F991F880F43
S1131340991F880F991F821B930B8555994FFC0198
S11313508081FA0180834AEF50E08091900290915D
S113136091029C01C901880F991F9C01C901880F32
S1131370991F880F991F880F991F821B930B8455FF
S1131380994FFC018081FA0180834AEF50E08091FB
S11313909002909191029C01C901880F991F9C01B0
S11313A0C901880F991F880F991F880F991F821BE5
S11313B0930B8355994FFC018081FA0180838091BE
S11313C0900290919102AC014F5F5F4F9A01ADEC96
S11313D0BCEC0E948F1A929582958F7089279F701A
S11313E0892764E1689F9001699F300D1124CA0127
S11313F0821B930B90939102809390028FEE90E066
S11314002FEE30E0F90120812064FC01208307C025
S113141089818F5F898389818F3008F4C9CD8DEEEE
S113142090E02A81FC01208300000F900F90DF914F
S1131430CF910895CF93DF9300D000D0CDB7DEB71E
S11314409C838B8380918E0290918F02AC014F5FBD
S11314505F4F9A01ADECBCEC0E948F1A9C0132954F
S113146022952F7023273F70232764E1629FC001D8
S1131470639F900D11249A01281B390BC9019A838B
S11314808983809190029091910229813A81281751
S1131490390709F420C120918E0230918F028B818B
S11314A09C81FC0180819181A281B381A9019A016F
S11314B0220F331FA9019A01220F331F220F331F5A
S11314C0220F331F241B350B2F55394FF90180830D
S11314D09183A283B38320918E0230918F028B81FA
S11314E09C81FC014585C901880F991F9C01C90194
S11314F0880F991F880F991F880F991F821B930BC0
S11315008255994FFC01408320918E0230918F02C5
S11315108B819C81FC014481C901880F991F9C0126
S1131520C901880F991F880F991F880F991F821B63
S1131530930B8B55994FFC01408320918E0230917F
S11315408F028B819C81FC014581C901880F991F01
S11315509C01C901880F991F880F991F880F991F33
S1131560821B930B8A55994FFC01408320918E0274
S113157030918F028B819C81FC014681C901880FC7
S1131580991F9C01C901880F991F880F991F880F03
S1131590991F821B930B8955994FFC01408320911D
S11315A08E0230918F028B819C81FC014781C9019D
S11315B0880F991F9C01C901880F991F880F991FD3
S11315C0880F991F821B930B8855994FFC01408308
S11315D020918E0230918F028B819C81FC01408589
S11315E0C901880F991F9C01C901880F991F880F91
S11315F0991F880F991F821B930B8755994FFC01E4
S1131600408320918E0230918F028B819C81FC015A
S11316104185C901880F991F9C01C901880F991F31
S1131620880F991F880F991F821B930B8655994F1A
S1131630FC01408320918E0230918F028B819C812A
S1131640FC014285C901880F991F9C01C901880FBB
S1131650991F880F991F880F991F821B930B85551B
S1131660994FFC01408320918E0230918F028B812F
S11316709C81FC014385C901880F991F9C01C90104
S1131680880F991F880F991F880F991F821B930B2E
S11316908455994FFC01408320918E0230918F0232
S11316A08B819C81FC014485C901880F991F9C0191
S11316B0C901880F991F880F991F880F991F821BD2
S11316C0930B8355994FFC01408389819A819093B0
S11316D08F0280938E0252DC00000F900F900F90C7
S11316E00F90DF91CF9108951F920F9200905F00A9
S11316F00F92112400905B000F922F933F934F930E
S11317005F936F937F938F939F93AF93BF93EF9365
S1131710FF93CF93DF9300D000D0CDB7DEB7809195
S1131720920290919302AC014F5F5F4FCA0196956C
S113173087959C01ABE7B4E10E948F1A9C01369512
S1131740279562E3629FC001639F900D11249A0163
S1131750281B390BC9019A8389838DEE90E0FC0123
S113176080818B838DEE90E02CEE30E0F9012081B6
S1131770FC0120838DEE90E0FC01808182958F70C6
S11317808C838C818A30A8F08C818F3090F48EEE1B
S113179090E0FC018081882F90E08F759927892B38
S11317A041F08EEE90E0FC0110828FEE90E0FC019F
S11317B010828EEE90E0FC018081882F90E0807290
S11317C09927892B09F4A8C18091940290919502DC
S11317D029813A812817390709F491C18C81853010
S11317E008F043C010929702109296026091920200
S11317F07091930283EF90E0FC018081882F90E048
S1131800A0E0B0E0880F991FAA1FBB1F880F991F83
S1131810AA1FBB1F880F991FAA1FBB1F9C01AD01E4
S113182082EF90E0FC018081829586958770882FF5
S113183090E0A0E0B0E0822B932BA42BB52BAB015E
S11318409A01220F331FA9019A01220F331F220F7D
S1131850331F220F331F241B350B29533C4FF9012F
S113186080839183A283B3837CC08C81853008F408
S113187078C08C818A3008F074C01092990210925A
S11318809802609192027091930283EF90E0FC01C0
S11318908081882F90E0A0E0B0E09C01AD01012E92
S11318A015E1220F331F441F551F1A95D1F7102D30
S11318B082EF90E0FC018081882F90E0A0E0B0E00E
S11318C0072E7DE0880F991FAA1FBB1F7A95D1F7B9
S11318D0702D282B392B4A2B5B2B81EF90E0FC01D8
S11318E08081882F90E0A0E0B0E0880F991FAA1FA4
S11318F0BB1F880F991FAA1FBB1F880F991FAA1F00
S1131900BB1F880F991FAA1FBB1F880F991FAA1FEF
S1131910BB1F282B392B4A2B5B2B80EF90E0FC015B
S11319208081869586958695882F90E0A0E0B0E02A
S1131930822B932BA42BB52BAB019A01220F331FBF
S1131940A9019A01220F331F220F331F220F331FC5
S1131950241B350B29533C4FF90180839183A283C7
S1131960B38320919202309193028AEF90E0FC01BC
S11319704081C901880F991F9C01C901880F991FD3
S1131980880F991F880F991F821B930B84539C4FB8
S1131990FC01408320919202309193028AEF90E0FF
S11319A0FC014081C901880F991F9C01C901880F5E
S11319B0991F880F991F880F991F821B930B8353BC
S11319C09C4FFC01408320919202309193028AEF54
S11319D090E0FC014081C901880F991F9C01C90155
S11319E0880F991F880F991F880F991F821B930BCB
S11319F082539C4FFC0140832091920230919302C8
S1131A008AEF90E0FC014081C901880F991F9C0175
S1131A10C901880F991F880F991F880F991F821B6E
S1131A20930B81539C4FFC0140832091920230918F
S1131A3093028AEF90E0FC014081C901880F991F4D
S1131A409C01C901880F991F880F991F880F991F3E
S1131A50821B930B80539C4FFC0140832091920284
S1131A60309193028AEF90E0FC014081C901880F14
S1131A70991F9C01C901880F991F880F991F880F0E
S1131A80991F821B930B8F529C4FFC014083209122
S1131A909202309193028AEF90E0FC014081C901E7
S1131AA0880F991F9C01C901880F991F880F991FDE
S1131AB0880F991F821B930B8E529C4FFC0140830D
S1131AC020919202309193028AEF90E0FC014081D0
S1131AD0C901880F991F9C01C901880F991F880F9C
S1131AE0991F880F991F821B930B8D529C4FFC01E9
S1131AF0408389819A8190939302809392028EEE1F
S1131B0090E0FC0110828FEE90E02FEE30E0F901BE
S1131B1020812068FC0120838DEE90E02B81FC0164
S1131B20208300000F900F900F900F90DF91CF91C2
S1131B30FF91EF91BF91AF919F918F917F916F91A1
S1131B405F914F913F912F910F9000925B000F9006
S1131B5000925F000F901F901895CF93DF9300D0F1
S1131B60CDB7DEB79A83898389819A81FC0180810C
S1131B708093400300000F900F90DF91CF91089560
S1131B80CF93DF9300D0CDB7DEB79A838983898161
S1131B909A810496FC0180818093410300000F9098
S1131BA00F90DF91CF910895CF93DF9300D0CDB7FD
S1131BB0DEB79A83898389819A81FC018081882F89
S1131BC090E0909343038093420380914203909169
S1131BD0430329813A812F5F3F4FF9012081222F4E
S1131BE030E0322F2227822B932B90934303809350
S1131BF0420389819A810296FC018081882F90E0BA
S1131C00909345038093440380914403909145034A
S1131C1029813A812D5F3F4FF9012081222F30E045
S1131C20322F2227822B932B9093450380934403D6
S1131C3000000F900F90DF91CF910895CF93DF9321
S1131C4000D0CDB7DEB79A83898389819A81FC015C
S1131C508081882F90E0909347038093460380917E
S1131C6046039091470329813A812F5F3F4FF90141
S1131C702081222F30E0322F2227822B932B909326
S1131C8047038093460300000F900F90DF91CF919C
S1131C900895CF93DF93CDB7DEB72E970FB6F894A0
S1131CA0DEBF0FBECDBF2EE0E8E0F1E0CE0101962D
S1131CB0DC0101900D922A95E1F7CE010196BADB81
S1131CC000002E960FB6F894DEBF0FBECDBFDF9195
S1131CD0CF910895CF93DF93CDB7DEB7C654D10922
S1131CE00FB6F894DEBF0FBECDBF3AD69C018091EB
S1131CF09E0290919F02A901481B590BCA01883C7E
S1131D00910550F02DD690939F0280939E0280916E
S1131D10B1028F5F8093B10280914103813039F425
S1131D2010929D021DD69093A5028093A4028091E7
S1131D3040038823A9F014D69C018091A4029091B9
S1131D40A502F901E81BF90BCF0180329E4440F053
S1131D5007D69093A5028093A40284E080939D0209
S1131D6080914003882F90E0092E000CAA0BBB0B36
S1131D7040E050E02FE130E0841B950B2817390731
S1131D8008F475C1865B9F4FFC010C94861A81E0B0
S1131D908093070110929C021092AE021092AF023F
S1131DA01092B00280914103823009F062C181E057
S1131DB080939D0281E080939C02D2D59093A502EA
S1131DC08093A40256C182E080939D02C9D590936A
S1131DD0A5028093A40252C181E08093AE02C0D5D3
S1131DE09093A5028093A40249C11092AE0210926E
S1131DF00701B6D59093A5028093A4023FC181E068
S1131E00809307012091D3023091D40280910B0377
S1131E1090910C038217930718F41092060103C0E3
S1131E2081E08093060180910601282F30E048E389
S1131E30429FC001439F900D11248D529D4FFC0180
S1131E408081918190939B0280939A021092AC02BC
S1131E501092AB0213C1209142033091430380914D
S1131E609A0290919B02845691092817390758F0D9
S1131E7082E080939C0281E08093AF0271D59093BD
S1131E80A5028093A4026CD59093A5028093A4022A
S1131E90F5C01092AF0282E295E190939B02809389
S1131EA09A0288E592E09093AC028093AB02E6C07C
S1131EB057D59093A7028093A60252D59093A5027A
S1131EC08093A4024DD59C018091A8029091A9020F
S1131ED0A901481B590BCA018031974208F4CBC0B1
S1131EE03FD59093A9028093A8022091D502309106
S1131EF0D60280910D0390910E032817390720F420
S1131F0081E08093060102C010920601809146038D
S1131F10909147039C01225331098091AB02909127
S1131F20AC028217930758F580910601282F30E000
S1131F3048E3429FC001439F900D11248B529D4F53
S1131F40FC01808191818732924008F094C0809195
S1131F50AB029091AC02803B944038F080EB94E06B
S1131F609093AC028093AB0286C08091AB029091B7
S1131F70AC02C2969093AC028093AB027CC02091D9
S1131F804603309147038091AB029091AC0228172D
S1131F90390708F070C08091AB029091AC02C297EF
S1131FA09093AC028093AB0266C010929B02109295
S1131FB09A021092AC021092AB0283E080939D02CD
S1131FC0CFD49C018091A6029091A702A901481B3D
S1131FD0590BCA01883E934058F0C2D49093A7028B
S1131FE08093A60281E08093B00281E080939C02FA
S1131FF0B7D49093A5028093A40240C0B1D4909327
S1132000A5028093A40285E080939D02A9D49C013B
S11320108091A6029091A702F901E81BF90BCF0168
S1132020883E934050F19CD49093A7028093A602DB
S113203081E08093B00281E080939C021EC01092E4
S11320409B0210929A021092AC021092AB0281E0B1
S113205080939C0285E080939D0210C086E080936B
S11320609D027ED49093A5028093A40207C0000031
S113207005C0000003C0000001C0000071D49C0131
S11320808091A0029091A102A901481B590BCA0199
S11320900A9708F474C064D49093A1028093A002B8
S11320A0809141038230E1F583E090ECACEBBEE13A
S11320B089839A83AB83BC8381E08D8380919D0265
S11320C08E8380919C028F838091AE02882F90E052
S11320D0880F991F982F80910701292F282B809111
S11320E0AF02882F90E0880F991F880F991F282B23
S11320F08091B002882F90E0880F991F880F991F54
S1132100880F991F822B888719861A861B861C863E
S11321108091B1028D8788E08E87CE0101968AD99D
S113212080914003882359F188E090ECACEBBEE148
S11321308F87988BA98BBA8B81E08B8B80919A02C5
S113214090919B028C8B80919A0290919B02892F93
S113215099278D8B8091AB029091AC028E8B8091EC
S1132160AB029091AC02892F99278F8B188E198E10
S11321701A8E1B8E88E08C8FCE010F965BD98091CE
S11321804003882309F473C0EBD39C018091A2021D
S11321909091A302F901E81BF90BCF01883E93400B
S11321A008F465C0DDD39093A3028093A20220912A
S11321B0D7023091D80280910F0390911003281711
S11321C0390720F481E08093AA0202C01092AA0287
S11321D08091AA02282F30E048E3429FC001439F28
S11321E0900D112489529D4FFC01808191819C01A5
S11321F0ADECBCEC0E948F1A9695879596958795C1
S1132200969587958093AD0286E090ECACEBBEE1A9
S11322108D8F9E8FAF8FB8A381E089A38091AD028B
S11322208AA384E68BA385E58CA31DA21EA21FA20C
S113223018A619A688E08AA7CE014D96FBD88EE091
S1132240E6E1F1E0DE019B9601900D928A95E1F7BB
S1132250CE018B96EFD88EE0E4E2F1E0DE01D99670
S113226001900D928A95E1F7CE01C996E3D800005A
S1132270CA5BDF4F0FB6F894DEBF0FBECDBFDF9150
S1132280CF910895CF93DF93CDB7DEB785E590E086
S113229020E1FC012083F89481E290E02FEFFC011F
S11322A0208384E290E027EFFC01208387E290E022
S11322B02FEFFC0120838AE290E02AE9FC012083CD
S11322C08DE290E02EE3FC01208380E390E020EF98
S11322D0FC01208383E390E02FE1FC01208382E270
S11322E090E0FC01108285E290E0FC01108288E21B
S11322F090E0FC0110828BE290E022E8FC01208354
S11323008EE290E022ECFC01208381E390E0FC016A
S1132310108284E390E02FE1FC0120837894000094
S1132320DF91CF910895CF93DF9300D01F92CDB763
S1132330DEB789837B836A838981282F30E08A8191
S11323409B81FC018081482F417055E1529FC0015F
S1132350539F900D11248F59964FFC01408389811E
S1132360282F30E08A819B81FC0180818695482F4B
S1132370417055E1529FC001539F900D11248E5915
S1132380964FFC0140838981282F30E08A819B810C
S1132390FC01808186958695482F417055E1529FB6
S11323A0C001539F900D11248D59964FFC01408319
S11323B08981282F30E08A819B81FC018081869568
S11323C086958695482F417055E1529FC001539FD1
S11323D0900D11248C59964FFC0140838981282F3C
S11323E030E08A819B81FC01808182958F70482F27
S11323F0417055E1529FC001539F900D11248B5998
S1132400964FFC0140838981282F30E08A819B818B
S1132410FC018081829586958770482F417055E133
S1132420529FC001539F900D11248A59964FFC016D
S1132430408300000F900F900F90DF91CF9108958B
S1132440CF93DF9300D01F92CDB7DEB789837B8310
S11324506A838981282F30E08A819B81FC018081F5
S1132460482F417055E1529FC001539F900D112494
S11324708959964FFC0140838981482F50E08A8115
S11324809B810396FC018081282F30E065E1649FE5
S1132490C001659F900D11248859964FFC0131832A
S11324A020838981482F50E08981282F30E065E11D
S11324B0629FC001639F900D11248859964FFC01BF
S11324C0808191812A813B812C5F3F4FF9012081DA
S11324D0222F30E0232F330F330B282B392B65E1C8
S11324E0649FC001659F900D11248859964FFC018B
S11324F03183208300000F900F900F90DF91CF91D4
S11325000895CF93DF93CDB7DEB78CE490E024E554
S1132510FC0120838DE490E0FC01108288E290E0CD
S1132520FC0120812160FC01208388E290E0FC0111
S113253020812260FC0120838EE290E0FC01208156
S11325402B7FFC0120838EE290E0FC01208124603B
S1132550FC0120830000DF91CF910895CF93DF9396
S1132560CDB7DEB788E290E0FC0120812E7FFC012C
S1132570208380E0C0D1882F90E0982F8827909303
S1132580900980938F0980E0B6D1282F30E08091A4
S11325908F0990919009822B932B909390098093AB
S11325A08F0988E290E0FC0120812160FC012083F6
S11325B088E290E0FC0120812D7FFC01208380E0F3
S11325C09AD1882F90E0982F88279093920980932E
S11325D0910980E090D1282F30E080919109909169
S11325E09209822B932B909392098093910988E20C
S11325F090E0FC0120812260FC0120838EE290E0C7
S1132600FC0120812B7FFC0120838EE290E0FC0101
S113261020812460FC0120830000DF91CF91089584
S1132620CF93DF931F92CDB7DEB789838981282F9B
S113263030E044E1429FC001439F900D11248B562A
S1132640964FFC01118210828981282F30E044E1E9
S1132650429FC001439F900D11248D56964FFC015B
S11326601182108200000F90DF91CF910895CF93D3
S1132670DF9300D0CDB7DEB789836A838981282FA1
S113268030E044E1429FC001439F900D11248D56D8
S1132690964FFC01808191810F9771F48981282FD5
S11326A030E044E1429FC001439F900D11248D56B8
S11326B0964FFC01118210828981482F50E0898154
S11326C0282F30E064E1629FC001639F900D1124C4
S11326D08D56964FFC0180819181BC016F5F7F4FC5
S11326E0A4E1A29FF001A39FF00D11249F012D5698
S11326F0364FF9017183608364E1649F9001659FA3
S1132700300D1124820F931F8956964F2A81FC01A4
S1132710208300000F900F90DF91CF910895CF9305
S1132720DF931F92CDB7DEB789838981282F30E0EC
S113273044E1429FC001439F900D11248B56964F54
S1132740FC01208131818981482F50E064E1649F3C
S1132750C001659F900D11248D56964FFC01808118
S113276091812817390709F44BC08981282F30E05B
S113277044E1429FC001439F900D11248B56964F14
S1132780FC01808191810F9771F48981282F30E0B9
S113279044E1429FC001439F900D11248B56964FF4
S11327A0FC01118210828981482F50E08981282FF1
S11327B030E064E1629FC001639F900D11248B5649
S11327C0964FFC0180819181BC016F5F7F4FA4E132
S11327D0A29FF001A39FF00D11249F012B56364FA9
S11327E0F9017183608364E1649F9001659F300DFA
S11327F01124820F931F8956964FFC01808101C0DA
S11328008FEF0F90DF91CF910895CF93DF9300D096
S11328101F92CDB7DEB78B831A8219828B81282F42
S113282030E044E1429FC001439F900D11248D5636
S1132830964FFC01208131818B81482F50E064E167
S1132840649FC001659F900D11248B56964FFC0127
S1132850808191812817390720F58B81282F30E05A
S113286044E1429FC001439F900D11248D56964F21
S1132870FC01208131818B81482F50E064E1649F09
S1132880C001659F900D11248B56964FFC018081E9
S11328909181A901481B590BCA010F969A83898318
S11328A022C08B81282F30E044E1429FC001439F26
S11328B0900D11248D56964FFC01208131818B811E
S11328C0482F50E064E1649FC001659F900D11247E
S11328D08B56964FFC0180819181A901481B590BAD
S11328E0CA019A83898389819A810F900F900F90EE
S11328F0DF91CF910895CF93DF931F92CDB7DEB7C9
S113290089838EE490E02981FC01208300008DE41A
S113291090E0FC0180818823D4F78EE490E0FC01F0
S113292080810F90DF91CF910895CF93DF93CDB73E
S1132930DEB780E790E020E730E0F90120812260F3
S1132940FC01208380EB90E02DE0FC01208383EBED
S113295090E02CE7FC0120830000DF91CF910895E3
S1132960CF93DF9300D0CDB7DEB7F8948091B20255
S11329709091B3029A838983789489819A810F9084
S11329800F90DF91CF9108951F920F9200905F00F6
S11329900F9211248F939F93CF93DF93CDB7DEB71C
S11329A08091B2029091B30201969093B302809306
S11329B0B2020000DF91CF919F918F910F9000920E
S11329C05F000F901F901895CF93DF931F92CDB7A0
S11329D0DEB7898389810AD031D080E021DE81E0AD
S11329E01FDE00000F90DF91CF910895CF93DF9306
S11329F01F92CDB7DEB78983898148D000000F903C
S1132A00DF91CF910895CF93DF931F92CDB7DEB7B7
S1132A108983000080EC90E0FC018081882F90E0A5
S1132A2080729927892BB1F386EC90E02981FC010F
S1132A30208300000F90DF91CF910895CF93DF930F
S1132A40CDB7DEB781EC90E021EC30E0F9012081D4
S1132A502862FC01208381EC90E021EC30E0F90154
S1132A6020812069FC01208380EC90E020EC30E0A0
S1132A70F90120812260FC01208360E070E083E0A2
S1132A8095E15CD50000DF91CF910895CF93DF935A
S1132A9000D0CDB7DEB78A8319828A81882F90E06F
S1132AA0092E000CAA0BBB0B40E050E027E030E0FD
S1132AB0841B950B28173907E0F086599F4FFC01BA
S1132AC025C58FEC898318C08AE8898315C087E6F9
S1132AD0898312C084E489830FC083E389830CC093
S1132AE082E2898309C089E1898306C080E1898300
S1132AF003C082E28983000084EC90E02981FC0118
S1132B00208300000F900F90DF91CF9108951F92C2
S1132B100F9200905F000F92112400905B000F92BF
S1132B200F931F932F933F934F935F936F937F93D1
S1132B308F939F93AF93BF93EF93FF93CF93DF93C1
S1132B40CDB7DEB780E061DE892B39F006EC10E00A
S1132B5080E0E5DDF801808309C081EC90E021ECA0
S1132B6030E0F90120812F7DFC0120830000DF91FA
S1132B70CF91FF91EF91BF91AF919F918F917F91F1
S1132B806F915F914F913F912F911F910F910F90F2
S1132B9000925B000F9000925F000F901F901895B9
S1132BA01F920F9200905F000F92112400905B001F
S1132BB00F922F933F934F935F936F937F938F93D2
S1132BC09F93AF93BF93EF93FF93CF93DF931F92A2
S1132BD0CDB7DEB7198286EC90E0FC018081898351
S1132BE0698181E044DD00000F90DF91CF91FF9176
S1132BF0EF91BF91AF919F918F917F916F915F9171
S1132C004F913F912F910F9000925B000F90009293
S1132C105F000F901F9018951F920F9200905F0015
S1132C200F92112400905B000F920F931F932F9328
S1132C303F934F935F936F937F938F939F93AF9340
S1132C40BF93EF93FF93CF93DF93CDB7DEB782E0CB
S1132C50DCDD892B39F00EEC10E082E060DDF80158
S1132C60808309C089EC90E029EC30E0F9012081EF
S1132C702F7DFC0120830000DF91CF91FF91EF9124
S1132C80BF91AF919F918F917F916F915F914F9180
S1132C903F912F911F910F910F9000925B000F9025
S1132CA000925F000F901F9018951F920F92009052
S1132CB05F000F92112400905B000F922F933F93BB
S1132CC04F935F936F937F938F939F93AF93BF9330
S1132CD0EF93FF93CF93DF931F92CDB7DEB71982A3
S1132CE08EEC90E0FC0180818983698183E0BFDC04
S1132CF000000F90DF91CF91FF91EF91BF91AF91C1
S1132D009F918F917F916F915F914F913F912F91FF
S1132D100F9000925B000F9000925F000F901F9045
S1132D201895CF93DF93CDB7DEB7209192023091FF
S1132D30930280919402909195022817390709F41F
S1132D407BC280919402909195029C01C901880FE5
S1132D50991F9C01C901880F991F880F991F880F1B
S1132D60991F821B930B89539C4FFC018081918195
S1132D70A281B3818530F2E09F07A105B10509F472
S1132D8075C1863022E09207A105B10508F044C060
S1132D908530E1E09E07A105B10509F4DFC0863066
S1132DA0F1E09F07A105B105A8F4823021E0920764
S1132DB0A105B10509F49EC08430E1E09E07A10598
S1132DC0B10509F4B1C081159140A105B10509F41B
S1132DD071C015C2811522E09207A105B10509F45D
S1132DE0F1C08130E2E09E07A105B10538F48630D8
S1132DF09140A105B10509F4CBC001C2823022E0A3
S1132E009207A105B10509F4FDC084309240A105E3
S1132E10B10509F411C1F3C18130F1EC9F07FCEB5A
S1132E20AF07FEE1BF0709F455C1823021EC9207D8
S1132E302CEBA2072EE1B207A8F48A31E6E09E0744
S1132E40A105B10509F4A9C18B31F6E09F07A105DD
S1132E50B10509F4BBC186309240A105B10509F45E
S1132E601FC1CDC18430E1EC9E07ECEBAE07EEE16F
S1132E70BE0709F47AC18530F1EC9F07FCEBAF077C
S1132E80FEE1BF0738F48330914CAC4BBE4109F4EA
S1132E9039C1B5C18630E1EC9E07ECEBAE07EEE13B
S1132EA0BE0709F447C18730914CAC4BBE4109F4CD
S1132EB059C1A5C184EF91E09093B4038093B30307
S1132EC080919402909195029C01C901880F991FE9
S1132ED09C01C901880F991F880F991F880F991F9A
S1132EE0821B930B059689539C4FBC0180E00E9482
S1132EF0B20085C180919402909195029C01C90110
S1132F00880F991F9C01C901880F991F880F991F69
S1132F10880F991F821B930B059689539C4FBC0104
S1132F2080E00E942A036BC18091940290919502E3
S1132F309C01C901880F991F9C01C901880F991F21
S1132F40880F991F880F991F821B930B059689532D
S1132F509C4FBC0180E00E94B30351C18091940254
S1132F60909195029C01C901880F991F9C01C90188
S1132F70880F991F880F991F880F991F821B930B25
S1132F80059689539C4FBC0180E00E943C0437C1E4
S1132F9080919402909195029C01C901880F991F18
S1132FA09C01C901880F991F880F991F880F991FC9
S1132FB0821B930B059689539C4FBC0180E00E94B1
S1132FC0B5011DC184EF91E09093B6038093B503DE
S1132FD080919402909195029C01C901880F991FD8
S1132FE09C01C901880F991F880F991F880F991F89
S1132FF0821B930B059689539C4FBC0181E00E9470
S1133000B200FDC080919402909195029C01C90187
S1133010880F991F9C01C901880F991F880F991F58
S1133020880F991F821B930B059689539C4FBC01F3
S113303081E00E942A03E3C080919402909195025A
S11330409C01C901880F991F9C01C901880F991F10
S1133050880F991F880F991F821B930B059689531C
S11330609C4FBC0181E00E94B303C9C080919402CB
S1133070909195029C01C901880F991F9C01C90177
S1133080880F991F880F991F880F991F821B930B14
S1133090059689539C4FBC0181E00E943C04AFC05B
S11330A080919402909195029C01C901880F991F07
S11330B09C01C901880F991F880F991F880F991FB8
S11330C0821B930B059689539C4FBC0181E00E949F
S11330D0B50195C080919402909195029C01C9011B
S11330E0880F991F9C01C901880F991F880F991F88
S11330F0880F991F821B930B059689539C4F0E943E
S1133100AD0D7DC080919402909195029C01C901FE
S1133110880F991F9C01C901880F991F880F991F57
S1133120880F991F821B930B059689539C4F0E940D
S1133130C00D65C080919402909195029C01C901D3
S1133140880F991F9C01C901880F991F880F991F27
S1133150880F991F821B930B059689539C4F0E94DD
S1133160D40D4DC00E94490E4AC0809194029091A2
S113317095029C01C901880F991F9C01C901880F00
S1133180991F880F991F880F991F821B930B05960F
S113319089539C4F0E941E0E32C0809194029091DC
S11331A095029C01C901880F991F9C01C901880FD0
S11331B0991F880F991F880F991F821B930B0596DF
S11331C089539C4FBC0181E0AED819C08091940210
S11331D0909195029C01C901880F991F9C01C90116
S11331E0880F991F880F991F880F991F821B930BB3
S11331F0059689539C4FBC0181E022D9000080913F
S1133200940290919502AC014F5F5F4FCA0196956D
S113321087959C01ABE7B4E182D19695879562E3EB
S1133220689F9001699F300D1124CA01821B930B82
S113323090939502809394020000DF91CF910895BA
S1133240CF93DF9300D000D0CDB7DEB71A821982B6
S11332501C821B8217D887E0B7DB67DB82E00E9401
S1133260D1054FD982E391E0C6D178D90E94BE0737
S113327058DD0E946A0E74DB9C018091B402909127
S1133280B502A901481B590BCA018436910568F19E
S113329067DB9093B5028093B4028091B30390915D
S11332A0B403892B71F080E00E94C50480919C02D4
S11332B0823021F480E00E94250503C080E00E9452
S11332C07B058091B3039091B403892B71F081E065
S11332D00E94C50480919C02823021F481E00E9406
S11332E0250503C081E00E947B0582E290E0FC0199
S11332F020812160FC01208382E290E0FC01208196
S11333002D7FFC01208382E290E0FC012081246077
S1133310FC01208382E290E0FC012081277FFC01F4
S113332020831EDB9C018B819C81A901481B590BC6
S1133330CA01853F9140C8F113DB9C838B8384E3EE
S113334090E024E330E0F901208121702095217080
S11333502170FC0130813E7F232BFC01208384E318
S113336090E024E330E0F901208126952170209536
S113337021702170220FFC0130813D7F232BFC0141
S1133380208384E390E024E330E0F901208122FBF0
S1133390222720F9209521702170220F220FFC0191
S11333A030813B7F232BFC012083DADA9C01898165
S11333B09A81A901481B590BCA018436910508F466
S11333C054CFCEDA9A83898380919D02882F90E02E
S11333D0292F2F938F9389E391E0892F8F9389E38A
S11333E091E08F93F5D00F900F900F900F908091F4
S11333F04003882F90E0292F2F938F938CE491E042
S1133400892F8F938CE491E08F93E2D00F900F90EB
S11334100F900F9080914003882F90E0092E000CAC
S1133420AA0BBB0B40E050E02FE130E0841B950B6E
S11334302817390708F466C08E589F4FFC0166C0F0
S11334408DE591E0D8D080914103823009F05CC0D1
S113345083E691E0D0D058C08CE691E0CCD055C042
S113346087E791E0C8D051C083E891E0C4D04DC053
S113347087E991E0C0D049C08AEA91E0BCD045C058
S113348085EC91E0B8D080919A0290919B02292F0B
S11334902F938F9385ED91E0892F8F9385ED91E0A4
S11334A08F9396D00F900F900F900F9080914203BE
S11334B090914303292F2F938F938BEE91E0892FC3
S11334C08F938BEE91E08F9383D00F900F900F909A
S11334D00F901BC085E092E08ED017C080E292E08E
S11334E08AD013C084E392E086D00FC08EE492E0C9
S11334F082D00BC086E692E07ED007C081E792E0DE
S11335007AD003C00000B1CE0000AFCEEE0FFF1F93
S11335100024001C0BBE0790F691E02D0994A29F95
S1133520B001B39FC001A39F700D811D1124911D93
S1133530B29F700D811D1124911D08950F931F9347
S1133540CF93DF93009731F46115710519F480E08E
S113355090E039C08B01EC016EE070E081E090E016
S113356077D2FC01892B99F380E883830115110537
S113357071F01387028781E883838091E309909136
S1133580E409892B21F4F093E409E093E3092097FB
S1133590C9F0D187C0878381826083838091E509E4
S11335A09091E609892B71F4F093E609E093E5091B
S11335B08091E7099091E809892B21F4F093E809B7
S11335C0E093E709CF01DF91CF911F910F91089507
S11335D0CF93DF93CDB7DEB7AE014B5F5F4FFA01F8
S11335E061917191AF018091E5099091E60933D021
S11335F0DF91CF9108950F931F93CF93DF93E091C1
S1133600E509F091E609238121FF1BC08C01D0E07C
S1133610C0E0F80181918F016091E5097091E6099C
S1133620DB011896ED91FC911997882331F00995E7
S1133630892B79F3DFEFCFEFECCF8AE00995892B63
S113364019F08FEF9FEF02C08D2F9C2FDF91CF9148
S11336501F910F9108952F923F924F925F926F9214
S11336607F928F929F92AF92BF92CF92DF92EF920E
S1133670FF920F931F93CF93DF93CDB7DEB72B97B2
S11336800FB6F894DEBF0FBECDBF6C017B018A017B
S1133690FC0117821682838181FFBFC1CE0101968E
S11336A03C01F6019381F70193FD859193FF81918C
S11336B07F01882309F4ADC1853239F493FD8591E6
S11336C093FF81917F01853221F4B60190E018D3F4
S11336D0E8CF912C212C312CFFE1F315D8F08B325B
S11336E079F038F4803279F08332A1F4232D20610B
S11336F01DC08D3261F0803369F4232D216016C022
S1133700832D8260382EE32DE4603E2E2AC0F32DF3
S1133710F8601DC037FC2DC020ED280F2A3040F082
S11337208E32B9F436FC75C1232D2064322E19C0B3
S113373036FE06C08AE0989E200D1124922E11C0F8
S1133740EAE02E9E200D1124222EF32DF0623F2E4E
S113375008C08C3621F4832D8068382E02C0883648
S113376041F4F70193FD859193FF81917F018111CC
S1133770B3CF982F9F7D9554933028F40C5F1F4F3F
S11337809FE399830DC0833631F0833771F083351D
S113379009F055C020C0F801808189830E5F1F4F56
S11337A088248394912C530112C02801F2E04F0E17
S11337B0511CF801A080B18036FE03C0692D70E071
S11337C002C06FEF7FEFC50190D24C018201F32D4F
S11337D0FF773F2E15C0280122E0420E511CF8014C
S11337E0A080B18036FE03C0692D70E002C06FEF87
S11337F07FEFC50168D24C01F32DF0683F2E8201A2
S113380033FC19C0822D90E088169906A0F4B60105
S113381080E290E075D22A94F5CFF50137FC8591CA
S113382037FE81915F01B60190E06AD221102A949B
S113383021E0821A91088114910479F7E1C0843659
S113384011F0893639F5F80137FE07C060817181BE
S1133850828193810C5F1F4F08C060817181072EA4
S1133860000C880B990B0E5F1F4FF32DFF763F2E34
S113387097FF09C090958095709561957F4F8F4F04
S11338809F4FF0683F2E2AE030E0A30175D2882EC6
S1133890861844C0853731F4232D2F7EB22E2AE0BA
S11338A030E025C0932D997FB92E8F36C1F018F4DE
S11338B0883579F0AEC0803719F0883721F0A9C077
S11338C0E92FE061BE2EB4FE0DC0FB2DF460BF2EC7
S11338D009C034FE0AC0292F2660B22E06C028E093
S11338E030E005C020E130E002C020E132E0F80120
S11338F0B7FE07C060817181828193810C5F1F4F85
S113390006C06081718180E090E00E5F1F4FA301CB
S113391033D2882E8618FB2DFF773F2E36FE0DC03E
S1133920232D2E7FA22E891458F434FE0BC032FCB2
S113393009C0832D8E7EA82E05C0B82CA32C03C0ED
S1133940B82C01C0B92CA4FE0FC0FE01E80DF11D76
S11339508081803321F49A2D997EA92E09C0A2FE7C
S113396006C0B394B39404C08A2D867809F0B39446
S1133970A3FC10C0A0FE06C0B21480F4280C922C44
S11339809B180DC0B21458F4B60180E290E0B8D18F
S1133990B394F8CFB21418F42B1802C0982C212C2D
S11339A0A4FE0FC0B60180E390E0AAD1A2FE16C027
S11339B0A1FC03C088E790E002C088E590E0B6016E
S11339C00CC08A2D867851F0A1FE02C08BE201C0A2
S11339D080E2A7FC8DE2B60190E092D1891430F424
S11339E0B60180E390E08CD19A94F8CF8A94F301E5
S11339F0E80DF11D8081B60190E082D18110F6CFEF
S1133A00222009F44ECEB60180E290E079D12A94C6
S1133A10F7CFF6018681978102C08FEF9FEF2B9637
S1133A200FB6F894DEBF0FBECDBFDF91CF911F91CB
S1133A300F91FF90EF90DF90CF90BF90AF909F9049
S1133A408F907F906F905F904F903F902F9008954C
S1133A500F931F93CF93DF93869F8001879F100D51
S1133A60969F100D1124C8010DD0EC01009721F090
S1133A70A80160E070E032D1CE01DF91CF911F91B7
S1133A800F9108950F931F93CF93DF938230910585
S1133A9010F482E090E0E091EB09F091EC0920E071
S1133AA030E0A0E0B0E0309719F14081518102810B
S1133AB0138148175907C8F08417950769F41097BC
S1133AC031F012960C93129713961C9327C000930F
S1133AD0EB091093EC0922C02115310519F04217A6
S1133AE0530718F49A01BD01EF01DF01F801DBCFA0
S1133AF021153105F9F0281B390B2430310580F4E8
S1133B008A819B816115710521F0FB019383828376
S1133B1004C09093EC098093EB09FE01329644C0F3
S1133B20FE01E20FF31F81939193225031093983EF
S1133B3028833AC02091E9093091EA09232B41F402
S1133B4020910201309103013093EA092093E9099D
S1133B5020910001309101012115310541F42DB767
S1133B603EB74091040150910501241B350BE091AF
S1133B70E909F091EA09E217F307A0F42E1B3F0BC1
S1133B802817390778F0AC014E5F5F4F24173507CB
S1133B9048F04E0F5F1F5093EA094093E90981935F
S1133BA0919302C0E0E0F0E0CF01DF91CF911F914B
S1133BB00F910895CF93DF93009709F481C0FC011E
S1133BC0329713821282A091EB09B091EC091097FD
S1133BD081F420813181820F931F2091E909309172
S1133BE0EA092817390751F5F093EA09E093E9093E
S1133BF067C0ED0120E030E0CE17DF0740F44A81D2
S1133C005B819E0141155105F1F0EA01F5CFD383A3
S1133C10C28340815181840F951FC817D90759F475
S1133C2088819981840F951F0296918380838A816C
S1133C309B81938382832115310529F4F093EC0948
S1133C40E093EB093DC0E901FB83EA834991599173
S1133C50C40FD51FEC17FD0761F480819181840F97
S1133C60951F0296E90199838883828193819B83BE
S1133C708A83E0E0F0E012968D919C91139700976F
S1133C8019F0FD01DC01F7CF8D919C9111979D01F5
S1133C902E5F3F4F820F931F2091E9093091EA096B
S1133CA02817390769F4309729F41092EC09109217
S1133CB0EB0902C013821282B093EA09A093E909C6
S1133CC0DF91CF910895FC0105906150704001107F
S1133CD0D8F7809590958E0F9F1F0895DC0101C041
S1133CE06D9341505040E0F70895FC0161507040DD
S1133CF001900110D8F7809590958E0F9F1F08951D
S1133D000F931F93CF93DF93FB01238121FD03C006
S1133D108FEF9FEF2CC022FF16C04681578124816C
S1133D2035814217530744F4A081B1819D012F5F6F
S1133D303F4F318320838C93268137812F5F3F4F00
S1133D403783268314C08B01EC01FB010084F185C9
S1133D50E02D0995892BE1F6D80116968D919C9159
S1133D601797019617969C938E931697CE01DF9121
S1133D70CF911F910F910895FA01AA27283051F18C
S1133D80203181F1E8946F936E7F6E5F7F4F8F4F88
S1133D909F4FAF4FB1E03ED0B4E03CD0670F781FE7
S1133DA0891F9A1FA11D680F791F8A1F911DA11DCC
S1133DB06A0F711D811D911DA11D20D009F4689405
S1133DC03F912AE0269F11243019305D3193DEF6AD
S1133DD0CF010895462F4770405D4193B3E00FD063
S1133DE0C9F7F6CF462F4F70405D4A3318F0495D4E
S1133DF031FD4052419302D0A9F7EACFB4E0A69531
S1133E009795879577956795BA95C9F70097610552
S1133E10710508959B01AC010A2E069457954795A8
S1133E2037952795BA95C9F7620F731F841F951F9D
S10B3E30A01D0895F894FFCFD2
S1133E380000ED092000010101C0BC1E019502002B
S1133E4800FF1F00000805C0BC1E01840318158864
S1133E581300000802C0BC1E01FFFFFFFFFFFFD8CC
S1133E68D60873746172740D006368617267654380
S1133E786F6E74726F6C3A25640D0A00657663631D
S1133E882E7374617475733A25640D0A0049444CA1
S1133E98450D00504C554720494E0D0045564343A7
S1133EA85F494E49540D00455643435F52454144CA
S1133EB8590D00455643435F415554485F46494EA2
S1133EC849534845440D00455643435F4350445FB6
S1133ED846494E49534845440D00455643435F43BC
S1133EE841424C455F434845434B5F46494E49531D
S1133EF84845440D00455643435F505245434841A5
S1133F085247450D0054617267657420566F6C748E
S1133F18616765203A2025640D0A00657663632E7F
S1133F286F7574707574566F6C74616765203A2088
S1133F3825640D0A00455643435F504F5745525F69
S1133F4844454C49564552595F53544152540D0007
S1133F58455643435F43555252454E5444454D419B
S1133F684E440D00455643435F504F5745525F44F6
S1133F78454C49564552595F53544F500D004556C8
S1133F8843435F57454C44494E475F444554454372
S1133F9854494F4E0D0047554E5F53575F4F4E0DD2
S1133FA800455643435F4552524F525F53454C4672
S1113FB85F5245434F56455241424C450D0061
S9030000FC
