:1000000051C000006EC000006CC000006AC000005B
:1000100068C0000066C0000064C0000062C000004C
:1000200060C000000C9414115CC000005AC00000B5
:1000300058C0000056C0000054C0000052C000006C
:1000400050C000004EC000000C94280A4AC00000B6
:1000500048C000000C9420120C94D71142C000003C
:1000600040C000003EC000003CC000003AC000009C
:1000700038C0000036C0000034C0000032C00000AC
:100080000C94A5120C945C122CC000002AC0000035
:1000900028C00000B111B411B711BA11BD11C011BF
:1000A000C311C61111241FBECFEFD0E1DEBFCDBFFB
:1000B00011E0A0E0B1E0E2EEF9E300E00BBF02C026
:1000C00007900D92A837B107D9F72AE0A8E7B1E069
:1000D00001C01D92A137B207E1F70E949D160C9452
:1000E000EF1C8ECFCF93DF9300D01F92CDB7DEB73A
:1000F00089837B836A838981482F50E08A819B8131
:10010000FC018081282F30E068E3649FC001659F77
:10011000900D11248D519E4FFC01318320838981E4
:10012000482F50E08981282F30E068E3629FC001AA
:10013000639F900D11248D519E4FFC018081918110
:100140002A813B812F5F3F4FF9012081222F30E030
:10015000322F2227282B392B68E3649FC001659F2B
:10016000900D11248D519E4FFC0131832083898194
:10017000482F50E08A819B810296FC018081282FC4
:1001800030E068E3649FC001659F900D11248B519E
:100190009E4FFC01318320838981482F50E0898163
:1001A000282F30E068E3629FC001639F900D112407
:1001B0008B519E4FFC01808191812A813B812D5F73
:1001C0003F4FF9012081222F30E0322F2227282BA8
:1001D000392B68E3649FC001659F900D11248B51FA
:1001E0009E4FFC01318320838981482F50E08A8112
:1001F0009B810496FC018081282F30E068E3649F96
:10020000C001659F900D112489519E4FFC013183DF
:1002100020838981482F50E08981282F30E068E3CE
:10022000629FC001639F900D112489519E4FFC0174
:10023000808191812A813B812B5F3F4FF901208191
:10024000222F30E0322F2227282B392B68E3649F9E
:10025000C001659F900D112489519E4FFC0131838F
:1002600020838981482F50E08A819B810696FC017A
:100270008081282F30E068E3649FC001659F900D66
:10028000112487519E4FFC01318320838981482F9F
:1002900050E08981282F30E068E3629FC001639FAE
:1002A000900D112487519E4FFC01808191812A81FC
:1002B0003B81295F3F4FF9012081222F30E0322F0F
:1002C0002227282B392B68E3649FC001659F900D7E
:1002D000112487519E4FFC013183208300000F9031
:1002E0000F900F90DF91CF910895CF93DF9300D0BF
:1002F0001F92CDB7DEB789837B836A838981282FDC
:1003000030E08A819B81FC018081482F417058E355
:10031000529FC001539F900D1124895F9D4FFC0196
:1003200040838981282F30E08A819B81FC01808174
:100330008695482F417058E3529FC001539F900DFE
:100340001124885F9D4FFC0140838981282F30E074
:100350008A819B81FC01808186958695482F41701A
:1003600058E3529FC001539F900D1124875F9D4F0A
:10037000FC0140838981282F30E08A819B81FC0128
:100380008081869586958695482F417058E3529FC7
:10039000C001539F900D1124865F9D4FFC01408347
:1003A0008981282F30E08A819B810196FC01808120
:1003B000482F417058E3529FC001539F900D112464
:1003C000855F9D4FFC0140838981282F30E08A8121
:1003D0009B810196FC0180818695482F417058E3EE
:1003E000529FC001539F900D1124845F9D4FFC01CB
:1003F00040838981282F30E08A819B810196FC010E
:10040000808186958695482F417058E3529FC001A0
:10041000539F900D1124835F9D4FFC014083898180
:10042000282F30E08A819B810196FC01808186958E
:1004300086958695482F417058E3529FC001539F7F
:10044000900D1124825F9D4FFC0140838981282FEC
:1004500030E08A819B810196FC01808182958F70BA
:10046000482F417058E3529FC001539F900D1124B3
:10047000815F9D4FFC0140838981282F30E08A8174
:100480009B810296FC01408158E3529FC001539F1B
:10049000900D1124805F9D4FFC0140838981282F9E
:1004A00030E08A819B810396FC01408158E3529F92
:1004B000C001539F900D11248F5E9D4FFC0140831E
:1004C0008981482F50E08A819B810496FC018081BC
:1004D000882F90E09C012F71332768E3649FC0014F
:1004E000659F900D11248E5E9D4FFC01318320830A
:1004F0008981482F50E08A819B810596FC0180818B
:10050000282F30E068E3649FC001659F900D11249F
:100510008C5E9D4FFC01318320838981482F50E000
:100520008981282F30E068E3629FC001639F900DAE
:1005300011248C5E9D4FFC01808191812A813B8139
:100540002A5F3F4FF9012081222F30E0322F2227EE
:10055000282B392B68E3649FC001659F900D1124FF
:100560008C5E9D4FFC01318320838981282F30E0F0
:1005700048E3429FC001439F900D11248C5E9D4F24
:10058000FC0180819181892BF1F08981482F50E015
:100590008981282F30E068E3629FC001639F900D3E
:1005A00011248E5E9D4FFC01808191819C0120620F
:1005B00068E3649FC001659F900D11248E5E9D4F7E
:1005C000FC013183208300000F900F900F90DF918A
:1005D000CF910895CF93DF9300D01F92CDB7DEB7B0
:1005E00089837B836A838981482F50E08A819B813C
:1005F000FC018081282F30E068E3649FC001659F83
:10060000900D11248D509E4FFC01318320838981F0
:10061000482F50E08981282F30E068E3629FC001B5
:10062000639F900D11248D509E4FFC01808191811C
:100630002A813B812F5F3F4FF9012081222F30E03B
:10064000322F2227282B392B68E3649FC001659F36
:10065000900D11248D509E4FFC01318320838981A0
:10066000482F50E08A819B810496FC018081282FCD
:1006700030E068E3649FC001659F900D11248950AC
:100680009E4FFC01318320838981482F50E089816E
:10069000282F30E068E3629FC001639F900D112412
:1006A00089509E4FFC01808191812A813B812B5F83
:1006B0003F4FF9012081222F30E0322F2227282BB3
:1006C000392B68E3649FC001659F900D1124895008
:1006D0009E4FFC013183208300000F900F900F90FC
:1006E000DF91CF910895CF93DF9300D01F92CDB7C4
:1006F000DEB789837B836A838981482F50E08A81B2
:100700009B81FC018081282F30E068E3649FC00159
:10071000659F900D112485509E4FFC0131832083ED
:100720008981482F50E08981282F30E068E3629F5B
:10073000C001639F900D112485509E4FFC01808164
:1007400091812A813B812F5F3F4FF9012081222F28
:1007500030E0322F2227282B392B68E3649FC00119
:10076000659F900D112485509E4FFC01318320839D
:100770008981482F50E08A819B810496FC01808109
:10078000282F30E068E3649FC001659F900D11241D
:1007900083509E4FFC01318320838981482F50E094
:1007A0008981282F30E068E3629FC001639F900D2C
:1007B000112483509E4FFC01808191812A813B81CD
:1007C0002B5F3F4FF9012081222F30E0322F22276B
:1007D000282B392B68E3649FC001659F900D11247D
:1007E00083509E4FFC013183208300000F900F90B7
:1007F0000F90DF91CF910895CF93DF9300D01F9298
:10080000CDB7DEB789837B836A838981482F50E027
:100810008A819B81FC018081282F30E068E3649FFE
:10082000C001659F900D112481509E4FFC013183C2
:1008300020838981482F50E08981282F30E068E3A8
:10084000629FC001639F900D112481509E4FFC0157
:10085000808191812A813B812F5F3F4FF901208167
:10086000222F30E0322F2227282B392B68E3649F78
:10087000C001659F900D112481509E4FFC01318372
:1008800020838981482F50E08A819B810496FC0156
:100890008081282F30E068E3649FC001659F900D40
:1008A00011248D5F9D4FFC01318320838981482F66
:1008B00050E08981282F30E068E3629FC001639F88
:1008C000900D11248D5F9D4FFC01808191812A81C3
:1008D0003B812B5F3F4FF9012081222F30E0322FE7
:1008E0002227282B392B68E3649FC001659F900D58
:1008F00011248D5F9D4FFC013183208300000F90F8
:100900000F900F90DF91CF910895CF93DF9300D098
:1009100000D0CDB7DEB78C8388ED90E021E0FC01FC
:10092000208388ED90E028ED30E0F90120812260FD
:10093000FC0120838C81882F90E08330910599F110
:100940008430910534F48130910571F00297D9F02B
:100950006AC08530910509F446C0853091059CF147
:10096000069709F450C05FC082EE90E0FC0110824F
:1009700083EE90E02CE0FC01208384EE90E027E3FE
:10098000FC01208350C082EE90E022E0FC01208335
:1009900083EE90E02CE0FC01208384EE90E027E3DE
:1009A000FC01208340C082EE90E026E0FC01208321
:1009B00083EE90E02CE0FC01208384EE90E027E3BE
:1009C000FC01208330C082EE90E028E0FC0120830F
:1009D00083EE90E02CE0FC01208384EE90E027E39E
:1009E000FC01208320C082EE90E02EE0FC012083F9
:1009F00083EE90E02CE0FC01208384EE90E027E37E
:100A0000FC01208310C082EE90E022E1FC012083F3
:100A100083EE90E02CE0FC01208384EE90E027E35D
:100A2000FC0120830000198271C08DEE90E02981C5
:100A30002295207FFC0120838FEE90E0FC01108244
:100A40008EEE90E0FC01108283EF90E0FC011082BA
:100A500082EF90E0FC01108287EF90E0FC011082B1
:100A600086EF90E0FC01108284EF90E021E0FC0131
:100A700020838FEE90E02FEE30E0F9012081286096
:100A8000FC0120838FEE90E02FEE30E0F901208111
:100A90002F7EFC0120838FEE90E02FEE30E0F901F5
:100AA00020812068FC01208389818830A8F48EEDA4
:100AB00090E02EED30E0F9012081622F2981422F54
:100AC00050E021E030E002C0220F331F4A95E2F7E8
:100AD000262BFC01208317C08FED90E02FED30E036
:100AE000F9012081622F2981222F30E0A90148508D
:100AF000510921E030E002C0220F331F4A95E2F78E
:100B0000262BFC01208389818F5F89838981853031
:100B100008F48BCF85E08A837DC08DEE90E02A813A
:100B20002295207FFC0120838FEE90E0FC01108253
:100B30008EEE90E0FC01108283EF90E0FC011082C9
:100B400082EF90E0FC01108281EF90E0FC011082C6
:100B500080EF90E0FC01108287EF90E0FC011082B2
:100B600086EF90E0FC01108285EF90E0FC0110829E
:100B700084EF90E021E0FC0120838FEE90E02FEEE7
:100B800030E0F90120812860FC0120838FEE90E0A5
:100B90002FEE30E0F90120812061FC0120838FEEEF
:100BA00090E02FEE30E0F90120812068FC012083E5
:100BB0008A818830A8F48EED90E02EED30E0F901C6
:100BC0002081622F2A81422F50E021E030E002C0D4
:100BD000220F331F4A95E2F7262BFC01208317C012
:100BE0008FED90E02FED30E0F9012081622F2A8116
:100BF000222F30E0A9014850510921E030E002C025
:100C0000220F331F4A95E2F7262BFC0120838A81AD
:100C10008F5F8A838A818A3008F47FCF8AE08B8352
:100C200041C08DEE90E02B812295207FFC01208336
:100C30008EEE90E0FC0110828FEE90E0FC011082BD
:100C40008B818830A8F48EED90E02EED30E0F90134
:100C50002081622F2B81422F50E021E030E002C042
:100C6000220F331F4A95E2F7262BFC01208317C081
:100C70008FED90E02FED30E0F9012081622F2B8184
:100C8000222F30E0A9014850510921E030E002C094
:100C9000220F331F4A95E2F7262BFC0120838B811C
:100CA0008F5F8B838B818F3008F4BBCF000089ED81
:100CB00090E0FC018081882F90E084709927892B37
:100CC000B1F38BED90E02BED30E0F9012081206B4A
:100CD000FC01208300000F900F900F900F90DF9188
:100CE000CF910895CF93DF9300D0CDB7DEB71A82AE
:100CF000209178013091790180917A0190917B0166
:100D00002817390709F444C28DEE90E0FC01808178
:100D10008A838AE0898333C28DEE90E0298122950F
:100D2000207FFC0120838FEE90E0FC0180818823EE
:100D300009F022C280917A0190917B019C01C90146
:100D4000880F991F9C01C901880F991F880F991F4F
:100D5000880F991F821B930B8E57994FFC0180813E
:100D6000882309F49BC043EF50E080917A01909171
:100D70007B019C01C901880F991F9C01C901880F43
:100D8000991F880F991F880F991F821B930B8258F8
:100D9000994FFC0180819181A281B381072E75E179
:100DA000B695A795979587957A95D1F7702DFA0105
:100DB000808342EF50E080917A0190917B019C0109
:100DC000C901880F991F9C01C901880F991F880FBD
:100DD000991F880F991F821B930B8258994FFC0112
:100DE00080819181A281B381072E7DE0B695A79580
:100DF000979587957A95D1F7702DFA01808341EF09
:100E000050E080917A0190917B019C01C901880F8B
:100E1000991F9C01C901880F991F880F991F880F7E
:100E2000991F821B930B8258994FFC0180819181FD
:100E3000A281B381689414F8B695A7959795879584
:100E40001694D1F7FA01808340EF50E080917A0147
:100E500090917B019C01C901880F991F9C01C901D8
:100E6000880F991F880F991F880F991F821B930B5A
:100E70008258994FFC0180819181A281B381880FB2
:100E8000880F880FFA0180838FEE90E02FEE30E01C
:100E9000F90120812061FC01208356C043EF50E01E
:100EA00080917A0190917B019C01C901880F991F63
:100EB0009C01C901880F991F880F991F880F991FDE
:100EC000821B930B8258994FFC0180819181A281F2
:100ED000B381689412F8B695A7959795879516945F
:100EE000D1F7FA01808342EF50E080917A0190912E
:100EF0007B019C01C901880F991F9C01C901880FC2
:100F0000991F880F991F880F991F821B930B825876
:100F1000994FFC0180819181A281B3818295880FD4
:100F2000807EFA01808381EF90E0FC01108280EFE7
:100F300090E0FC0110828FEE90E02FEE30E0F9019E
:100F400020812F7EFC01208380917A0190917B018A
:100F50009C01C901880F991F9C01C901880F991F25
:100F6000880F991F880F991F821B930B8557994FE4
:100F7000FC0140818FEE90E02FEE30E0F9012081FE
:100F8000242BFC0120834AEF50E080917A0190915C
:100F90007B019C01C901880F991F9C01C901880F21
:100FA000991F880F991F880F991F821B930B8D57CC
:100FB000994FFC018081FA0180834AEF50E08091D3
:100FC0007A0190917B019C01C901880F991F9C01B6
:100FD000C901880F991F880F991F880F991F821BBD
:100FE000930B8C57994FFC018081FA0180834AEF63
:100FF00050E080917A0190917B019C01C901880F9A
:10100000991F9C01C901880F991F880F991F880F8C
:10101000991F821B930B8B57994FFC018081FA011A
:1010200080834AEF50E080917A0190917B019C018E
:10103000C901880F991F9C01C901880F991F880F4A
:10104000991F880F991F821B930B8A57994FFC0198
:101050008081FA0180834AEF50E080917A0190917B
:101060007B019C01C901880F991F9C01C901880F50
:10107000991F880F991F880F991F821B930B8957FF
:10108000994FFC018081FA0180834AEF50E0809102
:101090007A0190917B019C01C901880F991F9C01E5
:1010A000C901880F991F880F991F880F991F821BEC
:1010B000930B8857994FFC018081FA0180834AEF96
:1010C00050E080917A0190917B019C01C901880FC9
:1010D000991F9C01C901880F991F880F991F880FBC
:1010E000991F821B930B8757994FFC018081FA014E
:1010F00080834AEF50E080917A0190917B019C01BE
:10110000C901880F991F9C01C901880F991F880F79
:10111000991F880F991F821B930B8657994FFC01CB
:101120008081FA01808380917A0190917B01AC01EA
:101130004F5F5F4F9A01ADECBCEC0E945A1892953C
:1011400082958F7089279F70892764E1689F90013D
:10115000699F300D1124CA01821B930B90937B0170
:1011600080937A018FEE90E02FEE30E0F90120813C
:101170002064FC01208307C089818F5F8983898176
:101180008F3008F4C9CD8DEE90E02A81FC012083D8
:1011900000000F900F90DF91CF910895CF93DF93D0
:1011A00000D000D0CDB7DEB79C838B8380917801CF
:1011B00090917901AC014F5F5F4F9A01ADECBCECAF
:1011C0000E945A189C01329522952F7023273F7058
:1011D000232764E1629FC001639F900D11249A014F
:1011E000281B390BC9019A83898380917A019091D8
:1011F0007B0129813A812817390709F420C1209100
:101200007801309179018B819C81FC0180819181F1
:10121000A281B381A9019A01220F331FA9019A016A
:10122000220F331F220F331F220F331F241B350BB6
:101230002258394FF90180839183A283B38320918F
:101240007801309179018B819C81FC014585C90130
:10125000880F991F9C01C901880F991F880F991F3A
:10126000880F991F821B930B8557994FFC01408370
:1012700020917801309179018B819C81FC0144811E
:10128000C901880F991F9C01C901880F991F880FF8
:10129000991F880F991F821B930B8E57994FFC0142
:1012A000408320917801309179018B819C81FC01F0
:1012B0004581C901880F991F9C01C901880F991F99
:1012C000880F991F880F991F821B930B8D57994F79
:1012D000FC01408320917801309179018B819C81C0
:1012E000FC014681C901880F991F9C01C901880F23
:1012F000991F880F991F880F991F821B930B8C577A
:10130000994FFC01408320917801309179018B81C4
:101310009C81FC014781C901880F991F9C01C9016B
:10132000880F991F880F991F880F991F821B930B95
:101330008B57994FFC0140832091780130917901BE
:101340008B819C81FC014085C901880F991F9C01FC
:10135000C901880F991F880F991F880F991F821B39
:10136000930B8A57994FFC0140832091780130916B
:1013700079018B819C81FC014185C901880F991FEE
:101380009C01C901880F991F880F991F880F991F09
:10139000821B930B8957994FFC0140832091780160
:1013A000309179018B819C81FC014285C901880FB4
:1013B000991F9C01C901880F991F880F991F880FD9
:1013C000991F821B930B8857994FFC0140832091F2
:1013D0007801309179018B819C81FC014385C901A1
:1013E000880F991F9C01C901880F991F880F991FA9
:1013F000880F991F821B930B8757994FFC014083DD
:1014000020917801309179018B819C81FC01448588
:10141000C901880F991F9C01C901880F991F880F66
:10142000991F880F991F821B930B8657994FFC01B8
:10143000408389819A81909379018093780152DC6D
:1014400000000F900F900F900F90DF91CF910895B3
:101450001F920F9200905F000F92112400905B008A
:101460000F922F933F934F935F936F937F938F933D
:101470009F93AF93BF93EF93FF93CF93DF9300D0EE
:1014800000D0CDB7DEB780917C0190917D01AC0199
:101490004F5F5F4FCA01969587959C01ABE7B4E11A
:1014A0000E945A189C013695279562E3629FC001FD
:1014B000639F900D11249A01281B390BC9019A834F
:1014C00089838DEE90E0FC0180818B838DEE90E02E
:1014D0002CEE30E0F9012081FC0120838DEE90E0BC
:1014E000FC01808182958F708C838C818A30A8F07A
:1014F0008C818F3090F48EEE90E0FC018081882FFB
:1015000090E08F759927892B41F08EEE90E0FC01D9
:1015100010828FEE90E0FC0110828EEE90E0FC01D4
:101520008081882F90E080729927892B09F4A8C1C7
:1015300080917E0190917F0129813A812817390796
:1015400009F491C18C81853008F043C0109281016B
:101550001092800160917C0170917D0183EF90E099
:10156000FC018081882F90E0A0E0B0E0880F991FF7
:10157000AA1FBB1F880F991FAA1FBB1F880F991F87
:10158000AA1FBB1F9C01AD0182EF90E0FC0180818E
:10159000829586958770882F90E0A0E0B0E0822B3E
:1015A000932BA42BB52BAB019A01220F331FA9015A
:1015B0009A01220F331F220F331F220F331F241BC8
:1015C000350B23593C4FF90180839183A283B38368
:1015D0007CC08C81853008F478C08C818A3008F01A
:1015E00074C0109283011092820160917C0170910D
:1015F0007D0183EF90E0FC018081882F90E0A0E0E6
:10160000B0E09C01AD01012E15E1220F331F441FF4
:10161000551F1A95D1F7102D82EF90E0FC018081C3
:10162000882F90E0A0E0B0E0072E7DE0880F991FA2
:10163000AA1FBB1F7A95D1F7702D282B392B4A2B67
:101640005B2B81EF90E0FC018081882F90E0A0E08F
:10165000B0E0880F991FAA1FBB1F880F991FAA1FF0
:10166000BB1F880F991FAA1FBB1F880F991FAA1F96
:10167000BB1F880F991FAA1FBB1F282B392B4A2B72
:101680005B2B80EF90E0FC018081869586958695A6
:10169000882F90E0A0E0B0E0822B932BA42BB52BF9
:1016A000AB019A01220F331FA9019A01220F331FA8
:1016B000220F331F220F331F241B350B23593C4F9E
:1016C000F90180839183A283B38320917C013091BF
:1016D0007D018AEF90E0FC014081C901880F991FCC
:1016E0009C01C901880F991F880F991F880F991FA6
:1016F000821B930B8E589C4FFC01408320917C01F0
:1017000030917D018AEF90E0FC014081C901880F92
:10171000991F9C01C901880F991F880F991F880F75
:10172000991F821B930B8D589C4FFC014083209185
:101730007C0130917D018AEF90E0FC014081C9017C
:10174000880F991F9C01C901880F991F880F991F45
:10175000880F991F821B930B8C589C4FFC01408370
:1017600020917C0130917D018AEF90E0FC01408165
:10177000C901880F991F9C01C901880F991F880F03
:10178000991F880F991F821B930B8B589C4FFC014C
:10179000408320917C0130917D018AEF90E0FC0133
:1017A0004081C901880F991F9C01C901880F991FA9
:1017B000880F991F880F991F821B930B8A589C4F83
:1017C000FC01408320917C0130917D018AEF90E003
:1017D000FC014081C901880F991F9C01C901880F34
:1017E000991F880F991F880F991F821B930B895887
:1017F0009C4FFC01408320917C0130917D018AEF58
:1018000090E0FC014081C901880F991F9C01C9012A
:10181000880F991F880F991F880F991F821B930BA0
:1018200088589C4FFC01408320917C0130917D01C0
:101830008AEF90E0FC014081C901880F991F9C014B
:10184000C901880F991F880F991F880F991F821B44
:10185000930B87589C4FFC01408389819A81909318
:101860007D0180937C018EEE90E0FC0110828FEE72
:1018700090E02FEE30E0F90120812068FC01208308
:101880008DEE90E02B81FC01208300000F900F90E3
:101890000F900F90DF91CF91FF91EF91BF91AF919A
:1018A0009F918F917F916F915F914F913F912F9178
:1018B0000F9000925B000F9000925F000F901F90BE
:1018C0001895CF93DF9300D000D0CDB7DEB79A83C1
:1018D00089837C836B838B819C810196FC01808151
:1018E0008295869586958370482F417029813A812B
:1018F000C901880F991F880F991F820F931F8D5F51
:10190000954FFC0140838B819C810296FC01808174
:10191000882F90E0A0E0B0E0B82FAA279927882769
:1019200049815A819A01220F331F220F331F240F3E
:10193000351F2C5F354FF90180839183A283B383D8
:1019400029813A81C901880F991F880F991F820F39
:10195000931F8C5F954FFC0120813181428153811F
:101960008B819C810396FC018081882F90E0A0E010
:10197000B0E0DC0199278827822B932BA42BB52B71
:1019800049815A819A01220F331F220F331F240FDE
:10199000351F2C5F354FF90180839183A283B38378
:1019A00029813A81C901880F991F880F991F820FD9
:1019B000931F8C5F954FFC012081318142815381BF
:1019C0008B819C810496FC018081882F90E0A0E0AF
:1019D000B0E0BA2FA92F982F8827822B932BA42B06
:1019E000B52B49815A819A01220F331F220F331FD1
:1019F000240F351F2C5F354FF90180839183A2831B
:101A0000B38329813A81C901880F991F880F991FD3
:101A1000820F931F8C5F954FFC01208131814281A1
:101A200053818B819C810596FC018081882F90E0F9
:101A3000A0E0B0E0822B932BA42BB52B49815A81D7
:101A40009A01220F331F220F331F240F351F2C5FE3
:101A5000354FF90180839183A283B38300000F90F7
:101A60000F900F900F90DF91CF910895CF93DF9358
:101A700000D0CDB7DEB79A83898389819A81FC0132
:101A800080818093500200000F900F90DF91CF91E2
:101A90000895CF93DF9300D0CDB7DEB79A838983C3
:101AA00089819A810496FC01808180935102000013
:101AB0000F900F90DF91CF910895CF93DF9300D0D7
:101AC000CDB7DEB79A83898389819A81FC018081B1
:101AD000882F90E09093530280935202809152029B
:101AE0009091530229813A812F5F3F4FF901208164
:101AF000222F30E0322F2227822B932B90935302F8
:101B00008093520289819A810296FC018081882FFC
:101B100090E09093550280935402809154029091EA
:101B2000550229813A812D5F3F4FF9012081222FF3
:101B300030E0322F2227822B932B909355028093F3
:101B4000540200000F900F90DF91CF910895CF9332
:101B5000DF9300D0CDB7DEB79A83898389819A81DC
:101B6000FC018081882F90E0909357028093560269
:101B7000809156029091570229813A812F5F3F4F01
:101B8000F9012081222F30E0322F2227822B932B44
:101B9000909357028093560200000F900F90DF91B0
:101BA000CF910895CF93DF93CDB7DEB72E970FB6C1
:101BB000F894DEBF0FBECDBF2EE0E2E2F1E0CE0131
:101BC0000196DC0101900D922A95E1F7CE01019674
:101BD000E5DA00002E960FB6F894DEBF0FBECDBF3B
:101BE000DF91CF910895CF93DF93CDB7DEB785E531
:101BF00090E020E1FC012083F89481E290E02FEF57
:101C0000FC01208384E290E027EFFC01208387E23F
:101C100090E02FEFFC0120838AE290E02AE9FC01AA
:101C200020838DE290E02EE3FC01208380E390E0AE
:101C300020EFFC01208383E390E02FE1FC0120836F
:101C400082E290E0FC01108285E290E0FC011082CB
:101C500088E290E0FC0110828BE290E022E8FC0137
:101C600020838EE290E022ECFC01208381E390E06F
:101C7000FC01108284E390E02FE1FC012083789442
:101C80000000DF91CF910895CF93DF9300D01F9292
:101C9000CDB7DEB789837B836A838981282F30E0C3
:101CA0008A819B81FC018081482F41705BE1529FBA
:101CB000C001539F900D1124825C964FFC0140831C
:101CC0008981282F30E08A819B81FC018081869563
:101CD000482F41705BE1529FC001539F900D11242A
:101CE000815C964FFC0140838981282F30E08A81F6
:101CF0009B81FC01808186958695482F43705BE12E
:101D0000529FC001539F900D11248A5B964FFC0196
:101D100040838981282F30E08A819B81FC0180816A
:101D2000869586958695482F41705BE1529FC0014C
:101D3000539F900D1124895B964FFC01408389814C
:101D4000282F30E08A819B81FC01808182958F70F1
:101D5000482F41705BE1529FC001539F900D1124A9
:101D6000885B964FFC0140838981282F30E08A816F
:101D70009B81FC018081829586958770482F4170F8
:101D80005BE1529FC001539F900D1124875B964FDA
:101D9000FC01408300000F900F900F90DF91CF91D6
:101DA0000895CF93DF93CDB7DEB78CE490E024E5C0
:101DB000FC0120838DE490E0FC01108288E290E039
:101DC000FC0120812160FC01208388E290E0FC017D
:101DD00020812260FC0120838EE290E0FC012081C2
:101DE0002B7FFC0120838EE290E0FC0120812460A7
:101DF000FC0120830000DF91CF910895CF93DF9302
:101E0000CDB7DEB788E290E0FC0120812E7FFC0197
:101E1000208380E0C0D1882F90E0982F882790936E
:101E2000FC098093FB0980E0B6D1282F30E0809137
:101E3000FB099091FC09822B932B9093FC098093D2
:101E4000FB0988E290E0FC0120812160FC012083F5
:101E500088E290E0FC0120812D7FFC01208380E05E
:101E60009AD1882F90E0982F88279093FE0980932D
:101E7000FD0980E090D1282F30E08091FD099091FC
:101E8000FE09822B932B9093FE098093FD0988E233
:101E900090E0FC0120812260FC0120838EE290E032
:101EA000FC0120812B7FFC0120838EE290E0FC016D
:101EB00020812460FC0120830000DF91CF910895F0
:101EC000CF93DF931F92CDB7DEB789838981282F07
:101ED00030E044E1429FC001439F900D1124875E92
:101EE000954FFC01118210828981282F30E044E156
:101EF000429FC001439F900D1124895E954FFC01C4
:101F00001182108200000F90DF91CF910895CF933E
:101F1000DF9300D0CDB7DEB789836A838981282F0C
:101F200030E044E1429FC001439F900D1124895E3F
:101F3000954FFC01808191810F9771F48981282F41
:101F400030E044E1429FC001439F900D1124895E1F
:101F5000954FFC01118210828981482F50E08981C0
:101F6000282F30E064E1629FC001639F900D11242F
:101F7000895E954FFC0180819181BC016F5F7F4F2D
:101F8000A4E1A29FF001A39FF00D11249F01295EFF
:101F9000354FF9017183608364E1649F9001659F0F
:101FA000300D1124820F931F855E954F2A81FC010D
:101FB000208300000F900F90DF91CF910895CF9371
:101FC000DF931F92CDB7DEB789838981282F30E058
:101FD00044E1429FC001439F900D1124875E954FBD
:101FE000FC01208131818981482F50E064E1649FA8
:101FF000C001659F900D1124895E954FFC01808181
:1020000091812817390709F44BC08981282F30E0C6
:1020100044E1429FC001439F900D1124875E954F7C
:10202000FC01808191810F9771F48981282F30E024
:1020300044E1429FC001439F900D1124875E954F5C
:10204000FC01118210828981482F50E08981282F5C
:1020500030E064E1629FC001639F900D1124875EB0
:10206000954FFC0180819181BC016F5F7F4FA4E19E
:10207000A29FF001A39FF00D11249F01275E354F11
:10208000F9017183608364E1649F9001659F300D65
:102090001124820F931F855E954FFC01808101C042
:1020A0008FEF0F90DF91CF910895CF93DF9300D002
:1020B0001F92CDB7DEB78B831A8219828B81282FAE
:1020C00030E044E1429FC001439F900D1124895E9E
:1020D000954FFC01208131818B81482F50E064E1D4
:1020E000649FC001659F900D1124875E954FFC0190
:1020F000808191812817390720F58B81282F30E0C6
:1021000044E1429FC001439F900D1124895E954F89
:10211000FC01208131818B81482F50E064E1649F74
:10212000C001659F900D1124875E954FFC01808151
:102130009181A901481B590BCA010F969A83898383
:1021400022C08B81282F30E044E1429FC001439F91
:10215000900D1124895E954FFC01208131818B8186
:10216000482F50E064E1649FC001659F900D1124E9
:10217000875E954FFC0180819181A901481B590B15
:10218000CA019A83898389819A810F900F900F9059
:10219000DF91CF910895CF93DF931F92CDB7DEB734
:1021A00089838EE490E02981FC01208300008DE486
:1021B00090E0FC0180818823D4F78EE490E0FC015C
:1021C00080810F90DF91CF910895CF93DF93CDB7AA
:1021D000DEB780E790E020E730E0F901208122605F
:1021E000FC01208380EB90E02DE0FC01208383EB59
:1021F00090E02CE7FC0120830000DF91CF9108954F
:10220000CF93DF9300D0CDB7DEB7F89480918501EE
:10221000909186019A838983789489819A810F901D
:102220000F90DF91CF9108951F920F9200905F0061
:102230000F9211248F939F93CF93DF93CDB7DEB787
:1022400080918501909186010196909386018093FB
:1022500085010000DF91CF919F918F910F900092A7
:102260005F000F901F901895CF93DF931F92CDB70B
:10227000DEB7898389810AD031D080E021DE81E018
:102280001FDE00000F90DF91CF910895CF93DF9371
:102290001F92CDB7DEB78983898148D000000F90A7
:1022A000DF91CF910895CF93DF931F92CDB7DEB723
:1022B0008983000080EC90E0FC018081882F90E011
:1022C00080729927892BB1F386EC90E02981FC017B
:1022D000208300000F90DF91CF910895CF93DF937B
:1022E000CDB7DEB781EC90E021EC30E0F901208140
:1022F0002862FC01208381EC90E021EC30E0F901C0
:1023000020812069FC01208380EC90E020EC30E00B
:10231000F90120812260FC01208360E070E083E508
:1023200091E1E1D60000DF91CF910895CF93DF9343
:1023300000D0CDB7DEB78A8319828A81882F90E0DA
:10234000092E000CAA0BBB0B40E050E027E030E068
:10235000841B950B28173907E0F0865B9F4FFC0123
:10236000A0C68FEC898318C08AE8898315C087E6E8
:10237000898312C084E489830FC083E389830CC0FE
:1023800082E2898309C089E1898306C080E189836B
:1023900003C082E28983000084EC90E02981FC0183
:1023A000208300000F900F90DF91CF9108951F922E
:1023B0000F9200905F000F92112400905B000F922B
:1023C0000F931F932F933F934F935F936F937F933D
:1023D0008F939F93AF93BF93EF93FF93CF93DF932D
:1023E000CDB7DEB780E061DE892B39F006EC10E076
:1023F00080E0E5DDF801808309C081EC90E021EC0C
:1024000030E0F90120812F7DFC0120830000DF9165
:10241000CF91FF91EF91BF91AF919F918F917F915C
:102420006F915F914F913F912F911F910F910F905D
:1024300000925B000F9000925F000F901F90189524
:102440001F920F9200905F000F92112400905B008A
:102450000F922F933F934F935F936F937F938F933D
:102460009F93AF93BF93EF93FF93CF93DF931F920D
:10247000CDB7DEB7198286EC90E0FC0180818983BC
:10248000698181E044DD00000F90DF91CF91FF91E1
:10249000EF91BF91AF919F918F917F916F915F91DC
:1024A0004F913F912F910F9000925B000F900092FF
:1024B0005F000F901F9018951F920F9200905F0081
:1024C0000F92112400905B000F920F931F932F9394
:1024D0003F934F935F936F937F938F939F93AF93AC
:1024E000BF93EF93FF93CF93DF93CDB7DEB782E037
:1024F000DCDD892B39F00EEC10E082E060DDF801C4
:10250000808309C089EC90E029EC30E0F90120815A
:102510002F7DFC0120830000DF91CF91FF91EF918F
:10252000BF91AF919F918F917F916F915F914F91EB
:102530003F912F911F910F910F9000925B000F9090
:1025400000925F000F901F9018951F920F920090BD
:102550005F000F92112400905B000F922F933F9326
:102560004F935F936F937F938F939F93AF93BF939B
:10257000EF93FF93CF93DF931F92CDB7DEB719820E
:102580008EEC90E0FC0180818983698183E0BFDC6F
:1025900000000F90DF91CF91FF91EF91BF91AF912C
:1025A0009F918F917F916F915F914F913F912F916B
:1025B0000F9000925B000F9000925F000F901F90B1
:1025C0001895CF93DF93CDB7DEB720917C01309182
:1025D0007D0180917E0190917F012817390709F4D0
:1025E000A8C380917E0190917F019C01C901880F51
:1025F000991F9C01C901880F991F880F991F880F87
:10260000991F821B930B83599C4FFC018081918100
:10261000A281B3818530F2E09F07A105B10509F4DD
:10262000BEC1863022E09207A105B10508F066C060
:102630008D32E1E09E07A105B10509F4F1C28E32A9
:10264000F1E09F07A105B10548F5843021E092072C
:10265000A105B10509F401C18530E1E09E07A1059E
:10266000B10570F48115F1E09F07A105B10509F4EA
:10267000BAC082309140A105B10509F4D4C03CC371
:102680008530E1E09E07A105B10509F400C186305F
:102690009140A105B10509F414C12EC3803321E096
:1026A0009207A105B10509F40CC38133E1E09E074F
:1026B000A105B10570F48E32F1E09F07A105B105C7
:1026C00009F4C9C28F329140A105B10509F4DEC2F7
:1026D00013C38230E2E09E07A105B10509F42BC1C6
:1026E0008430F2E09F07A105B10509F43EC18115D0
:1026F0009240A105B10509F4FEC0FEC28A35E6E0AC
:102700009E07A105B10509F459C28B35F6E09F0774
:10271000A105B10580F58A3126E09207A105B10532
:1027200009F4E8C18B31E6E09E07A105B10570F41C
:102730008630F2E09F07A105B10509F44AC18A304D
:102740009640A105B10509F4BCC1D6C28A33E6E0C2
:102750009E07A105B10509F4FFC18A34F6E09F0781
:10276000A105B10509F411C28A329640A105B1054F
:1027700009F4D9C1C1C28330E1EC9E07ECEBAE078E
:10278000EEE1BE0709F456C18430F1EC9F07FCEB83
:10279000AF07FEE1BF0770F48A3626E09207A10575
:1027A000B10509F424C28130914CAC4BBE4109F40F
:1027B0002AC1A2C28630F1EC9F07FCEBAF07FEE115
:1027C000BF0709F44EC1873021EC92072CEBA2071A
:1027D0002EE1B20709F45CC18430914CAC4BBE4190
:1027E00009F458C189C284EF91E090933203809339
:1027F000310380917E0190917F019C01C901880F76
:10280000991F9C01C901880F991F880F991F880F74
:10281000991F821B930B059683599C4FBC0180E046
:102820000E94720069C280917E0190917F019C019B
:10283000C901880F991F9C01C901880F991F880F32
:10284000991F880F991F821B930B059683599C4FE4
:10285000BC0180E00E94EA024FC280917E0190910B
:102860007F019C01C901880F991F9C01C901880F34
:10287000991F880F991F880F991F821B930B05962C
:1028800083599C4FBC0180E00E94730335C2809144
:102890007E0190917F019C01C901880F991F9C01C5
:1028A000C901880F991F880F991F880F991F821BD4
:1028B000930B059683599C4FBC0180E00E94FC035A
:1028C0001BC280917E0190917F019C01C901880FFC
:1028D000991F9C01C901880F991F880F991F880FA4
:1028E000991F821B930B059683599C4FBC0180E076
:1028F0000E94750101C284EF91E0909334038093AC
:10290000330380917E0190917F019C01C901880F62
:10291000991F9C01C901880F991F880F991F880F63
:10292000991F821B930B059683599C4FBC0181E034
:102930000E947200E1C180917E0190917F019C0113
:10294000C901880F991F9C01C901880F991F880F21
:10295000991F880F991F821B930B059683599C4FD3
:10296000BC0181E00E94EA02C7C180917E01909182
:102970007F019C01C901880F991F9C01C901880F23
:10298000991F880F991F880F991F821B930B05961B
:1029900083599C4FBC0181E00E947303ADC18091BB
:1029A0007E0190917F019C01C901880F991F9C01B4
:1029B000C901880F991F880F991F880F991F821BC3
:1029C000930B059683599C4FBC0181E00E94FC0348
:1029D00093C180917E0190917F019C01C901880F74
:1029E000991F9C01C901880F991F880F991F880F93
:1029F000991F821B930B059683599C4FBC0181E064
:102A00000E94750179C180917E0190917F019C01A6
:102A1000C901880F991F9C01C901880F991F880F50
:102A2000991F880F991F821B930B059683599C4F02
:102A30001DD862C180917E0190917F019C01C901E6
:102A4000880F991F9C01C901880F991F880F991F32
:102A5000880F991F821B930B059683599C4F19D899
:102A60004BC180917E0190917F019C01C901880F2B
:102A7000991F9C01C901880F991F880F991F880F02
:102A8000991F821B930B059683599C4F16D834C10E
:102A900089D832C180917E0190917F019C01C9014A
:102AA000880F991F9C01C901880F991F880F991FD2
:102AB000880F991F821B930B059683599C4F47D80B
:102AC0001BC180917E0190917F019C01C901880FFB
:102AD000991F9C01C901880F991F880F991F880FA2
:102AE000991F821B930B059683599C4FBC0180E074
:102AF000CBD802C180917E0190917F019C01C901D8
:102B0000880F991F9C01C901880F991F880F991F71
:102B1000880F991F821B930B059683599C4FBC010C
:102B200081E0B2D8E9C080917E0190917F019C0143
:102B3000C901880F991F9C01C901880F991F880F2F
:102B4000991F880F991F821B930B059683599C4FE1
:102B5000BC0182E099D8D0C080917E0190917F0124
:102B60009C01C901880F991F9C01C901880F991FF9
:102B7000880F991F880F991F821B930B0596835905
:102B80009C4FBC0183E080D8B7C080917E019091BA
:102B90007F019C01C901880F991F9C01C901880F01
:102BA000991F880F991F880F991F821B930B0596F9
:102BB00083599C4FBC0184E067D89EC080917E0100
:102BC00090917F019C01C901880F991F9C01C90147
:102BD000880F991F880F991F880F991F821B930BCD
:102BE000059683599C4FBC0185E04ED885C08091E5
:102BF0007E0190917F019C01C901880F991F9C0162
:102C0000C901880F991F880F991F880F991F821B70
:102C1000930B059683599C4FBC0186E035D86CC058
:102C200080917E0190917F019C01C901880F991FBD
:102C30009C01C901880F991F880F991F880F991F40
:102C4000821B930B059683599C4FBC0180E090E05A
:102C50000E94610C51C080917E0190917F019C0186
:102C6000C901880F991F9C01C901880F991F880FFE
:102C7000991F880F991F821B930B059683599C4FB0
:102C8000BC0181E090E00E94610C36C080917E0121
:102C900090917F019C01C901880F991F9C01C90176
:102CA000880F991F880F991F880F991F821B930BFC
:102CB000059683599C4FBC0182E090E00E94610C14
:102CC0001BC080917E0190917F019C01C901880FFA
:102CD000991F9C01C901880F991F880F991F880FA0
:102CE000991F821B930B059683599C4FBC0183E06F
:102CF00090E00E94610C000080917E0190917F0124
:102D0000AC014F5F5F4FCA01969587959C01ABE779
:102D1000B4E1D0D19695879562E3689F9001699F51
:102D2000300D1124CA01821B930B90937F01809375
:102D30007E010000DF91CF910895CF93DF93CDB74F
:102D4000DEB70E94F30D87E08FDA3FDA82E00E945F
:102D5000850427D88CE491E023D250D80E947206D3
:102D600030DC4EDA9C018091890190918A01A901A1
:102D7000481B590BCA01853F9140D8F141DA909325
:102D80008A018093890184E390E024E330E0F90133
:102D900020812170209521702170FC0130813E7FBF
:102DA000232BFC01208384E390E024E330E0F9014D
:102DB000208126952170209521702170220FFC0121
:102DC00030813D7F232BFC01208384E390E024E3CA
:102DD00030E0F901208122FB222720F92095217083
:102DE0002170220F220FFC0130813B7F232BFC013D
:102DF000208306DA9C0180918B0190918C01A901BE
:102E0000481B590BCA01843F914008F471C0F8D99E
:102E100090938C0180938B018091FB099091FC0928
:102E20009C0140E050E088E196E0DC0152D1DC01F9
:102E3000CB0120E137E240E050E0BC01CD010FD1F1
:102E4000DA01C90180930C018091FB099091FC0982
:102E50009C0140E050E088E196E0DC013AD1DC01E1
:102E6000CB0120E137E240E050E0BC01CD01F7D0DA
:102E7000DA01C901892F9A2FAB2FBB2780930D014F
:102E80008091FD099091FE099C0140E050E088E1AD
:102E900096E0DC011ED1DC01CB0120E137E240E00D
:102EA00050E0BC01CD01DBD0DA01C90180930E01F5
:102EB0008091FD099091FE099C0140E050E088E17D
:102EC00096E0DC0106D1DC01CB0120E137E240E0F5
:102ED00050E0BC01CD01C3D0DA01C901892F9A2F7E
:102EE000AB2FBB2780930F0186E091E00E94CE08B4
:102EF00082E290E02091460921702170FC0130812E
:102F00003E7F232BFC01208382E290E02091470941
:102F100021702170220FFC0130813D7F232BFC01A9
:102F2000208382E290E02091480921702170220FD5
:102F3000220FFC0130813B7F232BFC01208382E2A6
:102F400090E02091490921702170220F220F220F59
:102F5000FC013081377F232BFC01208351D99C0158
:102F600080918D0190918E01A901481B590BCA01D6
:102F7000843F9140D0F144D990938E0180938D018C
:102F800082E290E0FC0180818170282F82E290E053
:102F9000FC01808186958170882F90E0880F991FB1
:102FA000282B82E290E0FC01808182FB882780F957
:102FB000882F90E0880F991F880F991F282B82E295
:102FC00090E0FC01808183FB882780F9882F90E0C6
:102FD000880F991F880F991F880F991F822B809344
:102FE000190184E191E00E94CE080AD99C018091E8
:102FF000870190918801A901481B590BCA018436A9
:10300000910508F4AACEFCD890938801809387019B
:1030100080918401882F90E0292F2F938F9383E54F
:1030200091E0892F8F9383E591E08F93A6D00F9045
:103030000F900F900F9080915002882F90E0292FD1
:103040002F938F9386E691E0892F8F9386E691E008
:103050008F9393D00F900F900F900F907ECEA1E2A0
:103060001A2EAA1BBB1BFD010DC0AA1FBB1FEE1F02
:10307000FF1FA217B307E407F50720F0A21BB30B4D
:10308000E40BF50B661F771F881F991F1A9469F7C9
:1030900060957095809590959B01AC01BD01CF0125
:1030A0000895EE0FFF1F0024001C0BBE0790F69141
:1030B000E02D0994A29FB001B39FC001A39F700DA2
:1030C000811D1124911DB29F700D811D1124911D30
:1030D0000895F0DFA59F900DB49F900DA49F800DE3
:1030E000911D112408950F931F93CF93DF930097A1
:1030F00031F46115710519F480E090E039C08B015D
:10310000EC016EE070E081E090E077D2FC01892B69
:1031100099F380E883830115110571F01387028705
:1031200081E883838091670A9091680A892B21F452
:10313000F093680AE093670A2097C9F0D187C087A7
:103140008381826083838091690A90916A0A892BC6
:1031500071F4F0936A0AE093690A80916B0A909186
:103160006C0A892B21F4F0936C0AE0936B0ACF016F
:10317000DF91CF911F910F910895CF93DF93CDB73A
:10318000DEB7AE014B5F5F4FFA0161917191AF0104
:103190008091690A90916A0A33D0DF91CF910895A6
:1031A0000F931F93CF93DF93E091690AF0916A0A1E
:1031B000238121FF1BC08C01D0E0C0E0F801819188
:1031C0008F016091690A70916A0ADB011896ED918E
:1031D000FC911997882331F00995892B79F3DFEF5A
:1031E000CFEFECCF8AE00995892B19F08FEF9FEF95
:1031F00002C08D2F9C2FDF91CF911F910F910895C9
:103200002F923F924F925F926F927F928F929F92F6
:10321000AF92BF92CF92DF92EF92FF920F931F93E4
:10322000CF93DF93CDB7DEB72B970FB6F894DEBF01
:103230000FBECDBF6C017B018A01FC011782168293
:10324000838181FFBFC1CE0101963C01F6019381CC
:10325000F70193FD859193FF81917F01882309F404
:10326000ADC1853239F493FD859193FF81917F0142
:10327000853221F4B60190E018D3E8CF912C212CAF
:10328000312CFFE1F315D8F08B3279F038F480322D
:1032900079F08332A1F4232D20611DC08D3261F0BD
:1032A000803369F4232D216016C0832D8260382E6F
:1032B000E32DE4603E2E2AC0F32DF8601DC037FCDC
:1032C0002DC020ED280F2A3040F08E32B9F436FCA4
:1032D00075C1232D2064322E19C036FE06C08AE047
:1032E000989E200D1124922E11C0EAE02E9E200DF2
:1032F0001124222EF32DF0623F2E08C08C3621F4CB
:10330000832D8068382E02C0883641F4F70193FD82
:10331000859193FF81917F018111B3CF982F9F7D7C
:103320009554933028F40C5F1F4F9FE399830DC091
:10333000833631F0833771F0833509F055C020C0F2
:10334000F801808189830E5F1F4F88248394912C1C
:10335000530112C02801F2E04F0E511CF801A08069
:10336000B18036FE03C0692D70E002C06FEF7FEFC1
:10337000C50190D24C018201F32DFF773F2E15C07D
:10338000280122E0420E511CF801A080B18036FED7
:1033900003C0692D70E002C06FEF7FEFC50168D2F6
:1033A0004C01F32DF0683F2E820133FC19C0822DB1
:1033B00090E088169906A0F4B60180E290E075D2FC
:1033C0002A94F5CFF50137FC859137FE81915F0195
:1033D000B60190E06AD221102A9421E0821A910865
:1033E0008114910479F7E1C0843611F0893639F5FA
:1033F000F80137FE07C060817181828193810C5F83
:103400001F4F08C060817181072E000C880B990B3B
:103410000E5F1F4FF32DFF763F2E97FF09C090954B
:103420008095709561957F4F8F4F9F4FF0683F2E2D
:103430002AE030E0A30175D2882E861844C0853773
:1034400031F4232D2F7EB22E2AE030E025C0932DBB
:10345000997FB92E8F36C1F018F4883579F0AEC057
:10346000803719F0883721F0A9C0E92FE061BE2E1E
:10347000B4FE0DC0FB2DF460BF2E09C034FE0AC09F
:10348000292F2660B22E06C028E030E005C020E1DA
:1034900030E002C020E132E0F801B7FE07C06081F1
:1034A0007181828193810C5F1F4F06C060817181A1
:1034B00080E090E00E5F1F4FA30133D2882E861864
:1034C000FB2DFF773F2E36FE0DC0232D2E7FA22E23
:1034D000891458F434FE0BC032FC09C0832D8E7E53
:1034E000A82E05C0B82CA32C03C0B82C01C0B92C41
:1034F000A4FE0FC0FE01E80DF11D8081803321F490
:103500009A2D997EA92E09C0A2FE06C0B394B39449
:1035100004C08A2D867809F0B394A3FC10C0A0FEE5
:1035200006C0B21480F4280C922C9B180DC0B21463
:1035300058F4B60180E290E0B8D1B394F8CFB21459
:1035400018F42B1802C0982C212CA4FE0FC0B60131
:1035500080E390E0AAD1A2FE16C0A1FC03C088E7D8
:1035600090E002C088E590E0B6010CC08A2D867814
:1035700051F0A1FE02C08BE201C080E2A7FC8DE207
:10358000B60190E092D1891430F4B60180E390E066
:103590008CD19A94F8CF8A94F301E80DF11D8081C3
:1035A000B60190E082D18110F6CF222009F44ECEF0
:1035B000B60180E290E079D12A94F7CFF6018681B6
:1035C000978102C08FEF9FEF2B960FB6F894DEBF66
:1035D0000FBECDBFDF91CF911F910F91FF90EF9064
:1035E000DF90CF90BF90AF909F908F907F906F9023
:1035F0005F904F903F902F9008950F931F93CF931C
:10360000DF93869F8001879F100D969F100D1124D8
:10361000C8010DD0EC01009721F0A80160E070E036
:1036200032D1CE01DF91CF911F910F9108950F9369
:103630001F93CF93DF938230910510F482E090E0E6
:10364000E0916F0AF091700A20E030E0A0E0B0E075
:10365000309719F140815181028113814817590730
:10366000C8F08417950769F4109731F012960C93FF
:10367000129713961C9327C000936F0A1093700A39
:1036800022C02115310519F04217530718F49A0189
:10369000BD01EF01DF01F801DBCF21153105F9F0A4
:1036A000281B390B2430310580F48A819B816115F8
:1036B000710521F0FB019383828304C09093700A0B
:1036C00080936F0AFE01329644C0FE01E20FF31FA1
:1036D0008193919322503109398328833AC02091F4
:1036E0006D0A30916E0A232B41F420910201309132
:1036F000030130936E0A20936D0A209100013091EE
:1037000001012115310541F42DB73EB74091040167
:1037100050910501241B350BE0916D0AF0916E0A62
:10372000E217F307A0F42E1B3F0B2817390778F098
:10373000AC014E5F5F4F2417350748F04E0F5F1FF7
:1037400050936E0A40936D0A8193919302C0E0E01A
:10375000F0E0CF01DF91CF911F910F910895CF93AA
:10376000DF93009709F481C0FC0132971382128223
:10377000A0916F0AB091700A109781F42081318175
:10378000820F931F20916D0A30916E0A2817390716
:1037900051F5F0936E0AE0936D0A67C0ED0120E0E9
:1037A00030E0CE17DF0740F44A815B819E0141156E
:1037B0005105F1F0EA01F5CFD383C28340815181F5
:1037C000840F951FC817D90759F488819981840FF0
:1037D000951F0296918380838A819B819383828344
:1037E0002115310529F4F093700AE0936F0A3DC06A
:1037F000E901FB83EA8349915991C40FD51FEC1766
:10380000FD0761F480819181840F951F0296E90183
:1038100099838883828193819B838A83E0E0F0E0AF
:1038200012968D919C911397009719F0FD01DC0180
:10383000F7CF8D919C9111979D012E5F3F4F820F85
:10384000931F20916D0A30916E0A2817390769F489
:10385000309729F41092700A10926F0A02C01382F6
:103860001282B0936E0AA0936D0ADF91CF910895F2
:10387000FC010590615070400110D8F7809590953B
:103880008E0F9F1F0895DC0101C06D934150504081
:10389000E0F70895FC016150704001900110D8F7E5
:1038A000809590958E0F9F1F08950F931F93CF9330
:1038B000DF93FB01238121FD03C08FEF9FEF2CC01D
:1038C00022FF16C046815781248135814217530754
:1038D00044F4A081B1819D012F5F3F4F318320834C
:1038E0008C93268137812F5F3F4F3783268314C007
:1038F0008B01EC01FB010084F185E02D0995892BFA
:10390000E1F6D80116968D919C911797019617961E
:103910009C938E931697CE01DF91CF911F910F91BB
:103920000895FA01AA27283051F1203181F1E89455
:103930006F936E7F6E5F7F4F8F4F9F4FAF4FB1E0A2
:103940003ED0B4E03CD0670F781F891F9A1FA11D9D
:10395000680F791F8A1F911DA11D6A0F711D811D9E
:10396000911DA11D20D009F468943F912AE0269F63
:1039700011243019305D3193DEF6CF010895462FC2
:103980004770405D4193B3E00FD0C9F7F6CF462FA3
:103990004F70405D4A3318F0495D31FD405241930C
:1039A00002D0A9F7EACFB4E0A695979587957795C9
:1039B0006795BA95C9F700976105710508959B0150
:1039C000AC010A2E06945795479537952795BA95D9
:1039D000C9F7620F731F841F951FA01D0895F894E7
:0239E000FFCF17
:1039E2000000710A20000006000000000000000034
:1039F20000000008010600000000000000000000B6
:103A0200000801C0BC1E0195020000FF1F00000853
:103A120005C0BC1E0184031815881300000802C0EB
:103A2200BC1E01FFFFFFFFFFFFD8D608737461724F
:103A3200740D00636861726765436F6E74726F6CB8
:103A42003A25640D0A00657663632E73746174759A
:083A5200733A25640D0A00001F
:00000001FF
