S00D000068766D74312E7372656327
S113000051C000006EC000006CC000006AC0000057
S113001068C0000066C0000064C0000062C0000048
S113002060C000000C94E9105CC000005AC00000DD
S113003058C0000056C0000054C0000052C0000068
S113004050C000004EC000000C94280A4AC00000B2
S113005048C000000C94F5110C94AC1142C000008F
S113006040C000003EC000003CC000003AC0000098
S113007038C0000036C0000034C0000032C00000A8
S11300800C947A120C9431122CC000002AC0000087
S113009028C00000861189118C118F1192119511BD
S11300A098119B1111241FBECFEFD0E1DEBFCDBF4D
S11300B011E0A0E0B1E0E4E9F3E300E00BBF02C02B
S11300C007900D92A634B107D9F72AE0A6E4B1E06F
S11300D001C01D92A334B207E1F70E9472160C947A
S11300E0C8198ECFCF93DF9300D01F92CDB7DEB760
S11300F089837B836A838981482F50E08A819B812D
S1130100FC018081282F30E068E3649FC001659F73
S1130110900D11248F599E4FFC01318320838981D6
S1130120482F50E08981282F30E068E3629FC001A6
S1130130639F900D11248F599E4FFC018081918102
S11301402A813B812F5F3F4FF9012081222F30E02C
S1130150322F2227282B392B68E3649FC001659F27
S1130160900D11248F599E4FFC0131832083898186
S1130170482F50E08A819B810296FC018081282FC0
S113018030E068E3649FC001659F900D11248D5990
S11301909E4FFC01318320838981482F50E089815F
S11301A0282F30E068E3629FC001639F900D112403
S11301B08D599E4FFC01808191812A813B812D5F65
S11301C03F4FF9012081222F30E0322F2227282BA4
S11301D0392B68E3649FC001659F900D11248D59EC
S11301E09E4FFC01318320838981482F50E08A810E
S11301F09B810496FC018081282F30E068E3649F92
S1130200C001659F900D11248B599E4FFC013183D1
S113021020838981482F50E08981282F30E068E3CA
S1130220629FC001639F900D11248B599E4FFC0166
S1130230808191812A813B812B5F3F4FF90120818D
S1130240222F30E0322F2227282B392B68E3649F9A
S1130250C001659F900D11248B599E4FFC01318381
S113026020838981482F50E08A819B810696FC0176
S11302708081282F30E068E3649FC001659F900D62
S1130280112489599E4FFC01318320838981482F91
S113029050E08981282F30E068E3629FC001639FAA
S11302A0900D112489599E4FFC01808191812A81EE
S11302B03B81295F3F4FF9012081222F30E0322F0B
S11302C02227282B392B68E3649FC001659F900D7A
S11302D0112489599E4FFC013183208300000F9023
S11302E00F900F90DF91CF910895CF93DF9300D0BB
S11302F01F92CDB7DEB789837B836A838981282FD8
S113030030E08A819B81FC018081482F417058E351
S1130310529FC001539F900D11248B579E4FFC0197
S113032040838981282F30E08A819B81FC01808170
S11303308695482F417058E3529FC001539F900DFA
S113034011248A579E4FFC0140838981282F30E075
S11303508A819B81FC01808186958695482F417016
S113036058E3529FC001539F900D112489579E4F0B
S1130370FC0140838981282F30E08A819B81FC0124
S11303808081869586958695482F417058E3529FC3
S1130390C001539F900D112488579E4FFC01408348
S11303A08981282F30E08A819B810196FC0180811C
S11303B0482F417058E3529FC001539F900D112460
S11303C087579E4FFC0140838981282F30E08A8122
S11303D09B810196FC0180818695482F417058E3EA
S11303E0529FC001539F900D112486579E4FFC01CC
S11303F040838981282F30E08A819B810196FC010A
S1130400808186958695482F417058E3529FC0019C
S1130410539F900D112485579E4FFC014083898181
S1130420282F30E08A819B810196FC01808186958A
S113043086958695482F417058E3529FC001539F7B
S1130440900D112484579E4FFC0140838981282FED
S113045030E08A819B810196FC01808182958F70B6
S1130460482F417058E3529FC001539F900D1124AF
S113047083579E4FFC0140838981282F30E08A8175
S11304809B810296FC01408158E3529FC001539F17
S1130490900D112482579E4FFC0140838981282F9F
S11304A030E08A819B810396FC01408158E3529F8E
S11304B0C001539F900D112481579E4FFC0140832E
S11304C08981482F50E08A819B810496FC018081B8
S11304D0882F90E09C012F71332768E3649FC0014B
S11304E0659F900D112480579E4FFC01318320831A
S11304F08981482F50E08A819B810596FC01808187
S1130500282F30E068E3649FC001659F900D11249B
S11305108E569E4FFC01318320838981482F50E001
S11305208981282F30E068E3629FC001639F900DAA
S113053011248E569E4FFC01808191812A813B813A
S11305402A5F3F4FF9012081222F30E0322F2227EA
S1130550282B392B68E3649FC001659F900D1124FB
S11305608E569E4FFC01318320838981282F30E0F1
S113057048E3429FC001439F900D11248E569E4F25
S1130580FC0180819181892BF1F08981482F50E011
S11305908981282F30E068E3629FC001639F900D3A
S11305A0112480579E4FFC01808191819C0120621F
S11305B068E3649FC001659F900D112480579E4F8E
S11305C0FC013183208300000F900F900F90DF9186
S11305D0CF910895CF93DF9300D01F92CDB7DEB7AC
S11305E089837B836A838981482F50E08A819B8138
S11305F0FC018081282F30E068E3649FC001659F7F
S1130600900D11248F589E4FFC01318320838981E2
S1130610482F50E08981282F30E068E3629FC001B1
S1130620639F900D11248F589E4FFC01808191810E
S11306302A813B812F5F3F4FF9012081222F30E037
S1130640322F2227282B392B68E3649FC001659F32
S1130650900D11248F589E4FFC0131832083898192
S1130660482F50E08A819B810496FC018081282FC9
S113067030E068E3649FC001659F900D11248B589E
S11306809E4FFC01318320838981482F50E089816A
S1130690282F30E068E3629FC001639F900D11240E
S11306A08B589E4FFC01808191812A813B812B5F75
S11306B03F4FF9012081222F30E0322F2227282BAF
S11306C0392B68E3649FC001659F900D11248B58FA
S11306D09E4FFC013183208300000F900F900F90F8
S11306E0DF91CF910895CF93DF9300D01F92CDB7C0
S11306F0DEB789837B836A838981482F50E08A81AE
S11307009B81FC018081282F30E068E3649FC00155
S1130710659F900D112487589E4FFC0131832083DF
S11307208981482F50E08981282F30E068E3629F57
S1130730C001639F900D112487589E4FFC01808156
S113074091812A813B812F5F3F4FF9012081222F24
S113075030E0322F2227282B392B68E3649FC00115
S1130760659F900D112487589E4FFC01318320838F
S11307708981482F50E08A819B810496FC01808105
S1130780282F30E068E3649FC001659F900D112419
S113079085589E4FFC01318320838981482F50E086
S11307A08981282F30E068E3629FC001639F900D28
S11307B0112485589E4FFC01808191812A813B81BF
S11307C02B5F3F4FF9012081222F30E0322F222767
S11307D0282B392B68E3649FC001659F900D112479
S11307E085589E4FFC013183208300000F900F90A9
S11307F00F90DF91CF910895CF93DF9300D01F9294
S1130800CDB7DEB789837B836A838981482F50E023
S11308108A819B81FC018081282F30E068E3649FFA
S1130820C001659F900D112483589E4FFC013183B4
S113083020838981482F50E08981282F30E068E3A4
S1130840629FC001639F900D112483589E4FFC0149
S1130850808191812A813B812F5F3F4FF901208163
S1130860222F30E0322F2227282B392B68E3649F74
S1130870C001659F900D112483589E4FFC01318364
S113088020838981482F50E08A819B810496FC0152
S11308908081282F30E068E3649FC001659F900D3C
S11308A011248F579E4FFC01318320838981482F67
S11308B050E08981282F30E068E3629FC001639F84
S11308C0900D11248F579E4FFC01808191812A81C4
S11308D03B812B5F3F4FF9012081222F30E0322FE3
S11308E02227282B392B68E3649FC001659F900D54
S11308F011248F579E4FFC013183208300000F90F9
S11309000F900F90DF91CF910895CF93DF9300D094
S113091000D0CDB7DEB78C8388ED90E021E0FC01F8
S1130920208388ED90E028ED30E0F90120812260F9
S1130930FC0120838C81882F90E08330910599F10C
S11309408430910534F48130910571F00297D9F027
S11309506AC08530910509F446C0853091059CF143
S1130960069709F450C05FC082EE90E0FC0110824B
S113097083EE90E02CE0FC01208384EE90E027E3FA
S1130980FC01208350C082EE90E022E0FC01208331
S113099083EE90E02CE0FC01208384EE90E027E3DA
S11309A0FC01208340C082EE90E026E0FC0120831D
S11309B083EE90E02CE0FC01208384EE90E027E3BA
S11309C0FC01208330C082EE90E028E0FC0120830B
S11309D083EE90E02CE0FC01208384EE90E027E39A
S11309E0FC01208320C082EE90E02EE0FC012083F5
S11309F083EE90E02CE0FC01208384EE90E027E37A
S1130A00FC01208310C082EE90E022E1FC012083EF
S1130A1083EE90E02CE0FC01208384EE90E027E359
S1130A20FC0120830000198271C08DEE90E02981C1
S1130A302295207FFC0120838FEE90E0FC01108240
S1130A408EEE90E0FC01108283EF90E0FC011082B6
S1130A5082EF90E0FC01108287EF90E0FC011082AD
S1130A6086EF90E0FC01108284EF90E021E0FC012D
S1130A7020838FEE90E02FEE30E0F9012081286092
S1130A80FC0120838FEE90E02FEE30E0F90120810D
S1130A902F7EFC0120838FEE90E02FEE30E0F901F1
S1130AA020812068FC01208389818830A8F48EEDA0
S1130AB090E02EED30E0F9012081622F2981422F50
S1130AC050E021E030E002C0220F331F4A95E2F7E4
S1130AD0262BFC01208317C08FED90E02FED30E032
S1130AE0F9012081622F2981222F30E0A901485089
S1130AF0510921E030E002C0220F331F4A95E2F78A
S1130B00262BFC01208389818F5F8983898185302D
S1130B1008F48BCF85E08A837DC08DEE90E02A8136
S1130B202295207FFC0120838FEE90E0FC0110824F
S1130B308EEE90E0FC01108283EF90E0FC011082C5
S1130B4082EF90E0FC01108281EF90E0FC011082C2
S1130B5080EF90E0FC01108287EF90E0FC011082AE
S1130B6086EF90E0FC01108285EF90E0FC0110829A
S1130B7084EF90E021E0FC0120838FEE90E02FEEE3
S1130B8030E0F90120812860FC0120838FEE90E0A1
S1130B902FEE30E0F90120812061FC0120838FEEEB
S1130BA090E02FEE30E0F90120812068FC012083E1
S1130BB08A818830A8F48EED90E02EED30E0F901C2
S1130BC02081622F2A81422F50E021E030E002C0D0
S1130BD0220F331F4A95E2F7262BFC01208317C00E
S1130BE08FED90E02FED30E0F9012081622F2A8112
S1130BF0222F30E0A9014850510921E030E002C021
S1130C00220F331F4A95E2F7262BFC0120838A81A9
S1130C108F5F8A838A818A3008F47FCF8AE08B834E
S1130C2041C08DEE90E02B812295207FFC01208332
S1130C308EEE90E0FC0110828FEE90E0FC011082B9
S1130C408B818830A8F48EED90E02EED30E0F90130
S1130C502081622F2B81422F50E021E030E002C03E
S1130C60220F331F4A95E2F7262BFC01208317C07D
S1130C708FED90E02FED30E0F9012081622F2B8180
S1130C80222F30E0A9014850510921E030E002C090
S1130C90220F331F4A95E2F7262BFC0120838B8118
S1130CA08F5F8B838B818F3008F4BBCF000089ED7D
S1130CB090E0FC018081882F90E084709927892B33
S1130CC0B1F38BED90E02BED30E0F9012081206B46
S1130CD0FC01208300000F900F900F900F90DF9184
S1130CE0CF910895CF93DF9300D0CDB7DEB71A82AA
S1130CF020914A0130914B0180914C0190914D011A
S1130D002817390709F444C28DEE90E0FC01808174
S1130D108A838AE0898333C28DEE90E0298122950B
S1130D20207FFC0120838FEE90E0FC0180818823EA
S1130D3009F022C280914C0190914D019C01C9019E
S1130D40880F991F9C01C901880F991F880F991F4B
S1130D50880F991F821B930B86569B4FFC01808141
S1130D60882309F49BC043EF50E080914C0190919B
S1130D704D019C01C901880F991F9C01C901880F6D
S1130D80991F880F991F880F991F821B930B8A56EE
S1130D909B4FFC0180819181A281B381072E75E173
S1130DA0B695A795979587957A95D1F7702DFA0101
S1130DB0808342EF50E080914C0190914D019C0161
S1130DC0C901880F991F9C01C901880F991F880FB9
S1130DD0991F880F991F821B930B8A569B4FFC0106
S1130DE080819181A281B381072E7DE0B695A7957C
S1130DF0979587957A95D1F7702DFA01808341EF05
S1130E0050E080914C0190914D019C01C901880FE3
S1130E10991F9C01C901880F991F880F991F880F7A
S1130E20991F821B930B8A569B4FFC0180819181F1
S1130E30A281B381689414F8B695A7959795879580
S1130E401694D1F7FA01808340EF50E080914C0171
S1130E5090914D019C01C901880F991F9C01C90102
S1130E60880F991F880F991F880F991F821B930B56
S1130E708A569B4FFC0180819181A281B381880FA6
S1130E80880F880FFA0180838FEE90E02FEE30E018
S1130E90F90120812061FC01208356C043EF50E01A
S1130EA080914C0190914D019C01C901880F991FBB
S1130EB09C01C901880F991F880F991F880F991FDA
S1130EC0821B930B8A569B4FFC0180819181A281E6
S1130ED0B381689412F8B695A7959795879516945B
S1130EE0D1F7FA01808342EF50E080914C01909158
S1130EF04D019C01C901880F991F9C01C901880FEC
S1130F00991F880F991F880F991F821B930B8A566C
S1130F109B4FFC0180819181A281B3818295880FCE
S1130F20807EFA01808381EF90E0FC01108280EFE3
S1130F3090E0FC0110828FEE90E02FEE30E0F9019A
S1130F4020812F7EFC01208380914C0190914D01E2
S1130F509C01C901880F991F9C01C901880F991F21
S1130F60880F991F880F991F821B930B8D559B4FD8
S1130F70FC0140818FEE90E02FEE30E0F9012081FA
S1130F80242BFC0120834AEF50E080914C01909186
S1130F904D019C01C901880F991F9C01C901880F4B
S1130FA0991F880F991F880F991F821B930B8556D1
S1130FB09B4FFC018081FA0180834AEF50E08091CD
S1130FC04C0190914D019C01C901880F991F9C010E
S1130FD0C901880F991F880F991F880F991F821BB9
S1130FE0930B84569B4FFC018081FA0180834AEF66
S1130FF050E080914C0190914D019C01C901880FF2
S1131000991F9C01C901880F991F880F991F880F88
S1131010991F821B930B83569B4FFC018081FA011D
S113102080834AEF50E080914C0190914D019C01E6
S1131030C901880F991F9C01C901880F991F880F46
S1131040991F880F991F821B930B82569B4FFC019B
S11310508081FA0180834AEF50E080914C019091A5
S11310604D019C01C901880F991F9C01C901880F7A
S1131070991F880F991F880F991F821B930B815604
S11310809B4FFC018081FA0180834AEF50E08091FC
S11310904C0190914D019C01C901880F991F9C013D
S11310A0C901880F991F880F991F880F991F821BE8
S11310B0930B80569B4FFC018081FA0180834AEF99
S11310C050E080914C0190914D019C01C901880F21
S11310D0991F9C01C901880F991F880F991F880FB8
S11310E0991F821B930B8F559B4FFC018081FA0142
S11310F080834AEF50E080914C0190914D019C0116
S1131100C901880F991F9C01C901880F991F880F75
S1131110991F880F991F821B930B8E559B4FFC01BF
S11311208081FA01808380914C0190914D01AC0142
S11311304F5F5F4F9A01ADECBCEC0E94F3179295A0
S113114082958F7089279F70892764E1689F900139
S1131150699F300D1124CA01821B930B90934D019A
S113116080934C018FEE90E02FEE30E0F901208166
S11311702064FC01208307C089818F5F8983898172
S11311808F3008F4C9CD8DEE90E02A81FC012083D4
S113119000000F900F90DF91CF910895CF93DF93CC
S11311A000D000D0CDB7DEB79C838B8380914A01F9
S11311B090914B01AC014F5F5F4F9A01ADECBCECD9
S11311C00E94F3179C01329522952F7023273F70BC
S11311D0232764E1629FC001639F900D11249A014B
S11311E0281B390BC9019A83898380914C01909102
S11311F04D0129813A812817390709F420C120912A
S11312004A0130914B018B819C81FC018081918149
S1131210A281B381A9019A01220F331FA9019A0166
S1131220220F331F220F331F220F331F241B350BB2
S11312302A563B4FF90180839183A283B383209183
S11312404A0130914B018B819C81FC014585C90188
S1131250880F991F9C01C901880F991F880F991F36
S1131260880F991F821B930B8D559B4FFC01408364
S113127020914A0130914B018B819C81FC01448176
S1131280C901880F991F9C01C901880F991F880FF4
S1131290991F880F991F821B930B86569B4FFC0145
S11312A0408320914A0130914B018B819C81FC0148
S11312B04581C901880F991F9C01C901880F991F95
S11312C0880F991F880F991F821B930B85569B4F7C
S11312D0FC01408320914A0130914B018B819C8118
S11312E0FC014681C901880F991F9C01C901880F1F
S11312F0991F880F991F880F991F821B930B84567F
S11313009B4FFC01408320914A0130914B018B811A
S11313109C81FC014781C901880F991F9C01C90167
S1131320880F991F880F991F880F991F821B930B91
S113133083569B4FFC01408320914A0130914B011D
S11313408B819C81FC014085C901880F991F9C01F8
S1131350C901880F991F880F991F880F991F821B35
S1131360930B82569B4FFC01408320914A0130919C
S11313704B018B819C81FC014185C901880F991F18
S11313809C01C901880F991F880F991F880F991F05
S1131390821B930B81569B4FFC01408320914A0191
S11313A030914B018B819C81FC014285C901880FDE
S11313B0991F9C01C901880F991F880F991F880FD5
S11313C0991F821B930B80569B4FFC0140832091F5
S11313D04A0130914B018B819C81FC014385C901F9
S11313E0880F991F9C01C901880F991F880F991FA5
S11313F0880F991F821B930B8F559B4FFC014083D1
S113140020914A0130914B018B819C81FC014485E0
S1131410C901880F991F9C01C901880F991F880F62
S1131420991F880F991F821B930B8E559B4FFC01AC
S1131430408389819A8190934B0180934A0152DCC5
S113144000000F900F900F900F90DF91CF910895AF
S11314501F920F9200905F000F92112400905B0086
S11314600F922F933F934F935F936F937F938F9339
S11314709F93AF93BF93EF93FF93CF93DF9300D0EA
S113148000D0CDB7DEB780914E0190914F01AC01F1
S11314904F5F5F4FCA01969587959C01ABE7B4E116
S11314A00E94F3179C013695279562E3629FC00161
S11314B0639F900D11249A01281B390BC9019A834B
S11314C089838DEE90E0FC0180818B838DEE90E02A
S11314D02CEE30E0F9012081FC0120838DEE90E0B8
S11314E0FC01808182958F708C838C818A30A8F076
S11314F08C818F3090F48EEE90E0FC018081882FF7
S113150090E08F759927892B41F08EEE90E0FC01D5
S113151010828FEE90E0FC0110828EEE90E0FC01D0
S11315208081882F90E080729927892B09F4A8C1C3
S1131530809150019091510129813A8128173907EE
S113154009F491C18C81853008F043C01092530195
S11315501092520160914E0170914F0183EF90E01F
S1131560FC018081882F90E0A0E0B0E0880F991FF3
S1131570AA1FBB1F880F991FAA1FBB1F880F991F83
S1131580AA1FBB1F9C01AD0182EF90E0FC0180818A
S1131590829586958770882F90E0A0E0B0E0822B3A
S11315A0932BA42BB52BAB019A01220F331FA90156
S11315B09A01220F331F220F331F220F331F241BC4
S11315C0350B26523E4FF90180839183A283B38366
S11315D07CC08C81853008F478C08C818A3008F016
S11315E074C0109255011092540160914E01709193
S11315F04F0183EF90E0FC018081882F90E0A0E010
S1131600B0E09C01AD01012E15E1220F331F441FF0
S1131610551F1A95D1F7102D82EF90E0FC018081BF
S1131620882F90E0A0E0B0E0072E7DE0880F991F9E
S1131630AA1FBB1F7A95D1F7702D282B392B4A2B63
S11316405B2B81EF90E0FC018081882F90E0A0E08B
S1131650B0E0880F991FAA1FBB1F880F991FAA1FEC
S1131660BB1F880F991FAA1FBB1F880F991FAA1F92
S1131670BB1F880F991FAA1FBB1F282B392B4A2B6E
S11316805B2B80EF90E0FC018081869586958695A2
S1131690882F90E0A0E0B0E0822B932BA42BB52BF5
S11316A0AB019A01220F331FA9019A01220F331FA4
S11316B0220F331F220F331F241B350B26523E4F9C
S11316C0F90180839183A283B38320914E013091E9
S11316D04F018AEF90E0FC014081C901880F991FF6
S11316E09C01C901880F991F880F991F880F991FA2
S11316F0821B930B81529E4FFC01408320914E012B
S113170030914F018AEF90E0FC014081C901880FBC
S1131710991F9C01C901880F991F880F991F880F71
S1131720991F821B930B80529E4FFC014083209192
S11317304E0130914F018AEF90E0FC014081C901D4
S1131740880F991F9C01C901880F991F880F991F41
S1131750880F991F821B930B8F519E4FFC0140836E
S113176020914E0130914F018AEF90E0FC014081BD
S1131770C901880F991F9C01C901880F991F880FFF
S1131780991F880F991F821B930B8E519E4FFC014A
S1131790408320914E0130914F018AEF90E0FC018B
S11317A04081C901880F991F9C01C901880F991FA5
S11317B0880F991F880F991F821B930B8D519E4F81
S11317C0FC01408320914E0130914F018AEF90E05B
S11317D0FC014081C901880F991F9C01C901880F30
S11317E0991F880F991F880F991F821B930B8C5187
S11317F09E4FFC01408320914E0130914F018AEFAE
S113180090E0FC014081C901880F991F9C01C90126
S1131810880F991F880F991F880F991F821B930B9C
S11318208B519E4FFC01408320914E0130914F011A
S11318308AEF90E0FC014081C901880F991F9C0147
S1131840C901880F991F880F991F880F991F821B40
S1131850930B8A519E4FFC01408389819A81909316
S11318604F0180934E018EEE90E0FC0110828FEECA
S113187090E02FEE30E0F90120812068FC01208304
S11318808DEE90E02B81FC01208300000F900F90DF
S11318900F900F90DF91CF91FF91EF91BF91AF9196
S11318A09F918F917F916F915F914F913F912F9174
S11318B00F9000925B000F9000925F000F901F90BA
S11318C01895CF93DF9300D000D0CDB7DEB79A83BD
S11318D089837C836B838B819C810196FC0180814D
S11318E08295869586958370482F417029813A8127
S11318F0C901880F991F880F991F820F931F8A5A55
S1131900984FFC0140838B819C810296FC0180816D
S1131910882F90E0A0E0B0E0B82FAA279927882765
S113192049815A819A01220F331F220F331F240F3A
S1131930351F295A384FF90180839183A283B383D9
S113194029813A81C901880F991F880F991F820F35
S1131950931F895A984FFC01208131814281538120
S11319608B819C810396FC018081882F90E0A0E00C
S1131970B0E0DC0199278827822B932BA42BB52B6D
S113198049815A819A01220F331F220F331F240FDA
S1131990351F295A384FF90180839183A283B38379
S11319A029813A81C901880F991F880F991F820FD5
S11319B0931F895A984FFC012081318142815381C0
S11319C08B819C810496FC018081882F90E0A0E0AB
S11319D0B0E0BA2FA92F982F8827822B932BA42B02
S11319E0B52B49815A819A01220F331F220F331FCD
S11319F0240F351F295A384FF90180839183A2831C
S1131A00B38329813A81C901880F991F880F991FCF
S1131A10820F931F895A984FFC01208131814281A2
S1131A2053818B819C810596FC018081882F90E0F5
S1131A30A0E0B0E0822B932BA42BB52B49815A81D3
S1131A409A01220F331F220F331F240F351F295AE7
S1131A50384FF90180839183A283B38300000F90F0
S1131A600F900F900F90DF91CF910895CF93DF9354
S1131A7000D0CDB7DEB79A83898389819A81FC012E
S1131A8080818093CE0100000F900F90DF91CF9161
S1131A900895CF93DF9300D0CDB7DEB79A838983BF
S1131AA089819A810496FC0180818093CF01000092
S1131AB00F900F90DF91CF910895CF93DF9300D0D3
S1131AC0CDB7DEB79A83898389819A81FC018081AD
S1131AD0882F90E09093D1018093D0018091D00120
S1131AE09091D10129813A812F5F3F4FF9012081E3
S1131AF0222F30E0322F2227822B932B9093D10177
S1131B008093D00189819A810296FC018081882F7B
S1131B1090E09093D3018093D2018091D20190916F
S1131B20D30129813A812D5F3F4FF9012081222F72
S1131B3030E0322F2227822B932B9093D301809372
S1131B40D20100000F900F90DF91CF910895CF93B1
S1131B50DF9300D0CDB7DEB79A83898389819A81D8
S1131B60FC018081882F90E09093D5018093D4016B
S1131B708091D4019091D50129813A812F5F3F4F03
S1131B80F9012081222F30E0322F2227822B932B40
S1131B909093D5018093D40100000F900F90DF91B2
S1131BA0CF910895CF93DF93CDB7DEB72E970FB6BD
S1131BB0F894DEBF0FBECDBF2EE0E4E1F1E0CE012C
S1131BC00196DC0101900D922A95E1F7CE01019670
S1131BD0E5DA00002E960FB6F894DEBF0FBECDBF37
S1131BE0DF91CF910895CF93DF93CDB7DEB785E52D
S1131BF090E020E1FC012083F89481E290E02FEF53
S1131C00FC01208384E290E027EFFC01208387E23B
S1131C1090E02FEFFC0120838AE290E02AE9FC01A6
S1131C2020838DE290E02EE3FC01208380E390E0AA
S1131C3020EFFC01208383E390E02FE1FC0120836B
S1131C4082E290E0FC01108285E290E0FC011082C7
S1131C5088E290E0FC0110828BE290E022E8FC0133
S1131C6020838EE290E022ECFC01208381E390E06B
S1131C70FC01108284E390E02FE1FC01208378943E
S1131C800000DF91CF910895CF93DF9300D01F928E
S1131C90CDB7DEB789837B836A838981282F30E0BF
S1131CA08A819B81FC018081482F417059E3529FB6
S1131CB0C001539F900D11248C58984FFC01408310
S1131CC08981282F30E08A819B81FC01808186955F
S1131CD0482F417059E3529FC001539F900D112426
S1131CE08B58984FFC0140838981282F30E08A81EA
S1131CF09B81FC01808186958695482F417059E32C
S1131D00529FC001539F900D11248A58984FFC0193
S1131D1040838981282F30E08A819B81FC01808166
S1131D20869586958695482F417059E3529FC00148
S1131D30539F900D11248958984FFC014083000053
S1131D400F900F900F90DF91CF910895CF93DF9371
S1131D50CDB7DEB78CE490E024E5FC0120838DE46C
S1131D6090E0FC01108288E290E0FC012081216077
S1131D70FC01208388E290E0FC0120812260FC01C8
S1131D8020838EE290E0FC0120812B7FFC012083E4
S1131D908EE290E0FC0120812460FC01208300009D
S1131DA0DF91CF910895CF93DF93CDB7DEB788E26B
S1131DB090E0FC0120812E7FFC01208380E0C0D1D3
S1131DC0882F90E0982F88279093E6098093E5095F
S1131DD080E0B6D1282F30E08091E5099091E609A2
S1131DE0822B932B9093E6098093E50988E290E097
S1131DF0FC0120812160FC01208388E290E0FC0149
S1131E0020812D7FFC01208380E09AD1882F90E0EF
S1131E10982F88279093E8098093E70980E090D170
S1131E20282F30E08091E7099091E809822B932BC9
S1131E309093E8098093E70988E290E0FC0120810F
S1131E402260FC0120838EE290E0FC0120812B7F44
S1131E50FC0120838EE290E0FC0120812460FC01DF
S1131E6020830000DF91CF910895CF93DF931F92D9
S1131E70CDB7DEB789838981282F30E044E1429FC2
S1131E80C001439F900D11248551964FFC0111828E
S1131E9010828981282F30E044E1429FC001439F92
S1131EA0900D11248751964FFC011182108200007D
S1131EB00F90DF91CF910895CF93DF9300D0CDB7EA
S1131EC0DEB789836A838981282F30E044E1429F09
S1131ED0C001439F900D11248751964FFC018081CE
S1131EE091810F9771F48981282F30E044E1429F5A
S1131EF0C001439F900D11248751964FFC0111821C
S1131F0010828981482F50E08981282F30E064E1D4
S1131F10629FC001639F900D11248751964FFC016D
S1131F2080819181BC016F5F7F4FA4E1A29FF0018A
S1131F30A39FF00D11249F012751364FF90171839E
S1131F40608364E1649F9001659F300D1124820FCA
S1131F50931F8351964F2A81FC01208300000F9028
S1131F600F90DF91CF910895CF93DF931F92CDB758
S1131F70DEB789838981282F30E044E1429FC00184
S1131F80439F900D11248551964FFC01208131818E
S1131F908981482F50E064E1649FC001659F900DE2
S1131FA011248751964FFC018081918128173907AC
S1131FB009F44BC08981282F30E044E1429FC001DD
S1131FC0439F900D11248551964FFC01808191818E
S1131FD00F9771F48981282F30E044E1429FC001BA
S1131FE0439F900D11248551964FFC01118210825C
S1131FF08981482F50E08981282F30E064E1629F75
S1132000C001639F900D11248551964FFC0180817E
S11320109181BC016F5F7F4FA4E1A29FF001A39F58
S1132020F00D11249F012551364FF901718360830E
S113203064E1649F9001659F300D1124820F931F0A
S11320408351964FFC01808101C08FEF0F90DF9187
S1132050CF910895CF93DF9300D01F92CDB7DEB711
S11320608B831A8219828B81282F30E044E1429FAE
S1132070C001439F900D11248751964FFC0120818C
S113208031818B81482F50E064E1649FC001659FDA
S1132090900D11248551964FFC0180819181281760
S11320A0390720F58B81282F30E044E1429FC0019D
S11320B0439F900D11248751964FFC01208131815B
S11320C08B81482F50E064E1649FC001659F900DAF
S11320D011248551964FFC0180819181A901481BEF
S11320E0590BCA010F969A83898322C08B81282FAA
S11320F030E044E1429FC001439F900D1124875179
S1132100964FFC01208131818B81482F50E064E19E
S1132110649FC001659F900D11248551964FFC0169
S113212080819181A901481B590BCA019A83898333
S113213089819A810F900F900F90DF91CF9108952C
S1132140CF93DF931F92CDB7DEB789838EE490E0FF
S11321502981FC01208300008DE490E0FC01808152
S11321608823D4F78EE490E0FC0180810F90DF9106
S1132170CF910895CF93DF93CDB7DEB780E790E09A
S113218020E730E0F90120812260FC01208380EB0C
S113219090E02DE0FC01208383EB90E02CE7FC0130
S11321A020830000DF91CF910895CF93DF9300D077
S11321B0CDB7DEB7F89480915601909157019A8378
S11321C08983789489819A810F900F90DF91CF91C0
S11321D008951F920F9200905F000F9211248F9325
S11321E09F93CF93DF93CDB7DEB780915601909143
S11321F05701019690935701809356010000DF9197
S1132200CF919F918F910F9000925F000F901F903C
S11322101895CF93DF931F92CDB7DEB78983898159
S11322200AD031D080E021DE81E01FDE00000F9073
S1132230DF91CF910895CF93DF931F92CDB7DEB78F
S11322408983898148D000000F90DF91CF91089550
S1132250CF93DF931F92CDB7DEB78983000080EC64
S113226090E0FC018081882F90E080729927892B6F
S1132270B1F386EC90E02981FC01208300000F90EB
S1132280DF91CF910895CF93DF93CDB7DEB781EC83
S113229090E021EC30E0F90120812862FC012083E8
S11322A081EC90E021EC30E0F90120812069FC010F
S11322B0208380EC90E020EC30E0F9012081226062
S11322C0FC01208360E070E088E291E1A5D6000083
S11322D0DF91CF910895CF93DF9300D0CDB7DEB7D0
S11322E08A8319828A81882F90E0092E000CAA0B18
S11322F0BB0B40E050E027E030E0841B950B28172F
S11323003907E0F0865B9F4FFC0164C68FEC89833C
S113231018C08AE8898315C087E6898312C084E4DB
S113232089830FC083E389830CC082E2898309C057
S113233089E1898306C080E1898303C082E28983BD
S1132340000084EC90E02981FC01208300000F90C0
S11323500F90DF91CF9108951F920F9200905F002C
S11323600F92112400905B000F920F931F932F93F1
S11323703F934F935F936F937F938F939F93AF9309
S1132380BF93EF93FF93CF93DF93CDB7DEB780E096
S113239061DE892B39F006EC10E080E0E5DDF80120
S11323A0808309C081EC90E021EC30E0F9012081C8
S11323B02F7DFC0120830000DF91CF91FF91EF91ED
S11323C0BF91AF919F918F917F916F915F914F9149
S11323D03F912F911F910F910F9000925B000F90EE
S11323E000925F000F901F9018951F920F9200901B
S11323F05F000F92112400905B000F922F933F9384
S11324004F935F936F937F938F939F93AF93BF93F8
S1132410EF93FF93CF93DF931F92CDB7DEB719826B
S113242086EC90E0FC0180818983698181E044DD50
S113243000000F90DF91CF91FF91EF91BF91AF9189
S11324409F918F917F916F915F914F913F912F91C8
S11324500F9000925B000F9000925F000F901F900E
S113246018951F920F9200905F000F921124009014
S11324705B000F920F931F932F933F934F935F93A0
S11324806F937F938F939F93AF93BF93EF93FF9338
S1132490CF93DF93CDB7DEB782E0DCDD892B39F053
S11324A00EEC10E082E060DDF801808309C089EC65
S11324B090E029EC30E0F90120812F7DFC0120839C
S11324C00000DF91CF91FF91EF91BF91AF919F9168
S11324D08F917F916F915F914F913F912F911F91B8
S11324E00F910F9000925B000F9000925F000F908D
S11324F01F9018951F920F9200905F000F92112465
S113250000905B000F922F933F934F935F936F93D1
S11325107F938F939F93AF93BF93EF93FF93CF9347
S1132520DF931F92CDB7DEB719828EEC90E0FC01E9
S113253080818983698183E0BFDC00000F90DF9193
S1132540CF91FF91EF91BF91AF919F918F917F9127
S11325506F915F914F913F912F910F9000925B008B
S11325600F9000925F000F901F901895CF93DF9308
S1132570CDB7DEB720914E0130914F0180915001CB
S1132580909151012817390709F4A8C3809150018B
S1132590909151019C01C901880F991F9C01C901A7
S11325A0880F991F880F991F880F991F821B930BFF
S11325B086529E4FFC0180819181A281B381853036
S11325C0F2E09F07A105B10509F4BEC1863022E0FF
S11325D09207A105B10508F066C08D32E1E09E07BF
S11325E0A105B10509F4F1C28E32F1E09F07A105FE
S11325F0B10548F5843021E09207A105B10509F43D
S113260001C18530E1E09E07A105B10570F4811593
S1132610F1E09F07A105B10509F4BAC082309140E9
S1132620A105B10509F4D4C03CC38530E1E09E079F
S1132630A105B10509F400C186309140A105B10599
S113264009F414C12EC3803321E09207A105B1051A
S113265009F40CC38133E1E09E07A105B10570F4D0
S11326608E32F1E09F07A105B10509F4C9C28F328A
S11326709140A105B10509F4DEC213C38230E2E042
S11326809E07A105B10509F42BC18430F2E09F0730
S1132690A105B10509F43EC181159240A105B1051A
S11326A009F4FEC0FEC28A35E6E09E07A105B10525
S11326B009F459C28B35F6E09F07A105B10580F5F1
S11326C08A3126E09207A105B10509F4E8C18B31EE
S11326D0E6E09E07A105B10570F48630F2E09F079D
S11326E0A105B10509F44AC18A309640A105B10596
S11326F009F4BCC1D6C28A33E6E09E07A105B10540
S113270009F4FFC18A34F6E09F07A105B10509F475
S113271011C28A329640A105B10509F4D9C1C1C2DA
S11327208330E1EC9E07ECEBAE07EEE1BE0709F463
S113273056C18430F1EC9F07FCEBAF07FEE1BF0705
S113274070F48A3626E09207A105B10509F424C283
S11327508130914CAC4BBE4109F42AC1A2C28630EF
S1132760F1EC9F07FCEBAF07FEE1BF0709F44EC194
S1132770873021EC92072CEBA2072EE1B20709F473
S11327805CC18430914CAC4BBE4109F458C189C240
S113279084EF91E09093470180934601809150012A
S11327A0909151019C01C901880F991F9C01C90195
S11327B0880F991F880F991F880F991F821B930BED
S11327C0059686529E4FBC0180E00E94720069C249
S11327D080915001909151019C01C901880F991F6A
S11327E09C01C901880F991F880F991F880F991F91
S11327F0821B930B059686529E4FBC0180E00E947B
S1132800EA024FC280915001909151019C01C9018B
S1132810880F991F9C01C901880F991F880F991F60
S1132820880F991F821B930B059686529E4FBC01FD
S113283080E00E94730335C2809150019091510150
S11328409C01C901880F991F9C01C901880F991F18
S1132850880F991F880F991F821B930B0596865228
S11328609E4FBC0180E00E94FC031BC2809150017A
S1132870909151019C01C901880F991F9C01C901C4
S1132880880F991F880F991F880F991F821B930B1C
S1132890059686529E4FBC0180E00E94750101C2DC
S11328A084EF91E090934901809348018091500115
S11328B0909151019C01C901880F991F9C01C90184
S11328C0880F991F880F991F880F991F821B930BDC
S11328D0059686529E4FBC0181E00E947200E1C1C0
S11328E080915001909151019C01C901880F991F59
S11328F09C01C901880F991F880F991F880F991F80
S1132900821B930B059686529E4FBC0181E00E9468
S1132910EA02C7C180915001909151019C01C90103
S1132920880F991F9C01C901880F991F880F991F4F
S1132930880F991F821B930B059686529E4FBC01EC
S113294081E00E947303ADC18091500190915101C7
S11329509C01C901880F991F9C01C901880F991F07
S1132960880F991F880F991F821B930B0596865217
S11329709E4FBC0181E00E94FC0393C180915001F1
S1132980909151019C01C901880F991F9C01C901B3
S1132990880F991F880F991F880F991F821B930B0B
S11329A0059686529E4FBC0181E00E94750179C153
S11329B080915001909151019C01C901880F991F88
S11329C09C01C901880F991F880F991F880F991FAF
S11329D0821B930B059686529E4F48D862C1809104
S11329E05001909151019C01C901880F991F9C01CC
S11329F0C901880F991F880F991F880F991F821B7F
S1132A00930B059686529E4F44D84BC1809150013A
S1132A10909151019C01C901880F991F9C01C90122
S1132A20880F991F880F991F880F991F821B930B7A
S1132A30059686529E4F41D834C1B4D832C1809194
S1132A405001909151019C01C901880F991F9C016B
S1132A50C901880F991F880F991F880F991F821B1E
S1132A60930B059686529E4F72D81BC180915001DC
S1132A70909151019C01C901880F991F9C01C901C2
S1132A80880F991F880F991F880F991F821B930B1A
S1132A90059686529E4FBC0180E0F6D802C1809113
S1132AA05001909151019C01C901880F991F9C010B
S1132AB0C901880F991F880F991F880F991F821BBE
S1132AC0930B059686529E4FBC0181E0DDD8E9C088
S1132AD080915001909151019C01C901880F991F67
S1132AE09C01C901880F991F880F991F880F991F8E
S1132AF0821B930B059686529E4FBC0182E0C4D87C
S1132B00D0C080915001909151019C01C901880F5E
S1132B10991F9C01C901880F991F880F991F880F5D
S1132B20991F821B930B059686529E4FBC0183E02E
S1132B30ABD8B7C080915001909151019C01C9015B
S1132B40880F991F9C01C901880F991F880F991F2D
S1132B50880F991F821B930B059686529E4FBC01CA
S1132B6084E092D89EC080915001909151019C01C3
S1132B70C901880F991F9C01C901880F991F880FEB
S1132B80991F880F991F821B930B059686529E4F9F
S1132B90BC0185E079D885C08091500190915101A4
S1132BA09C01C901880F991F9C01C901880F991FB5
S1132BB0880F991F880F991F821B930B05968652C5
S1132BC09E4FBC0186E060D86CC08091500190910A
S1132BD051019C01C901880F991F9C01C901880FEB
S1132BE0991F880F991F880F991F821B930B0596B5
S1132BF086529E4FBC0180E090E00E94610C51C05F
S1132C0080915001909151019C01C901880F991F35
S1132C109C01C901880F991F880F991F880F991F5C
S1132C20821B930B059686529E4FBC0181E090E077
S1132C300E94610C36C080915001909151019C0119
S1132C40C901880F991F9C01C901880F991F880F1A
S1132C50991F880F991F821B930B059686529E4FCE
S1132C60BC0182E090E00E94610C1BC08091500185
S1132C70909151019C01C901880F991F9C01C901C0
S1132C80880F991F880F991F880F991F821B930B18
S1132C90059686529E4FBC0183E090E00E94610C31
S1132CA000008091500190915101AC014F5F5F4F42
S1132CB0CA01969587959C01ABE7B4E194D19695AA
S1132CC0879562E3689F9001699F300D1124CA01C2
S1132CD0821B930B90935101809350010000DF916C
S1132CE0CF910895CF93DF93CDB7DEB70E94F30D54
S1132CF087E08FDA3FDA82E00E94850427D88EE3EA
S1132D0091E0D4D150D80E94720630DC4EDA9C0196
S1132D1080915A0190915B01A901481B590BCA018A
S1132D20853F9140D8F141DA90935B0180935A0139
S1132D3084E390E024E330E0F901208121702095C0
S1132D4021702170FC0130813E7F232BFC01208304
S1132D5084E390E024E330E0F9012081269521709A
S1132D60209521702170220FFC0130813D7F232B9F
S1132D70FC01208384E390E024E330E0F901208126
S1132D8022FB222720F9209521702170220F220F87
S1132D90FC0130813B7F232BFC01208382E290E005
S1132DA02091740721702170FC0130813E7F232B18
S1132DB0FC01208382E290E020917507217021704C
S1132DC0220FFC0130813D7F232BFC01208382E212
S1132DD090E02091760721702170220F220FFC01D0
S1132DE030813B7F232BFC01208382E290E0209101
S1132DF0770721702170220F220F220FFC013081EE
S1132E00377F232BFC012083D0D99C0180915C0166
S1132E1090915D01A901481B590BCA01843F91405F
S1132E2008F4A2C0C2D990935D0180935C0182E250
S1132E3090E0FC0180818170282F82E290E0FC0107
S1132E40808186958170882F90E0880F991F282BA8
S1132E5082E290E0FC01808182FB882780F9882F40
S1132E6090E0880F991F880F991F282B82E290E029
S1132E70FC01808183FB882780F9882F90E0880FEC
S1132E80991F880F991F880F991F822B80930B011C
S1132E908091E5099091E6099C0140E050E088E1C9
S1132EA096E0DC01AFD0DC01CB0120E137E240E069
S1132EB050E0BC01CD016CD0DA01C90180930C0152
S1132EC08091E5099091E6099C0140E050E088E199
S1132ED096E0DC0197D0DC01CB0120E137E240E051
S1132EE050E0BC01CD0154D0DA01C901892F9A2FD9
S1132EF0AB2FBB2780930D018091E7099091E809DE
S1132F009C0140E050E088E196E0DC017BD0DC01EC
S1132F10CB0120E137E240E050E0BC01CD0138D0E4
S1132F20DA01C90180930E018091E7099091E809C3
S1132F309C0140E050E088E196E0DC0163D0DC01D4
S1132F40CB0120E137E240E050E0BC01CD0120D0CC
S1132F50DA01C901892F9A2FAB2FBB2780930F0168
S1132F6086E091E00E94CE0820D99C01809158010E
S1132F7090915901A901481B590BCA018436910546
S1132F8008F4C0CE12D99093590180935801BACE57
S1132F90A1E21A2EAA1BBB1BFD010DC0AA1FBB1F59
S1132FA0EE1FFF1FA217B307E407F50720F0A21BCB
S1132FB0B30BE40BF50B661F771F881F991F1A9438
S1132FC069F760957095809590959B01AC01BD0162
S1132FD0CF010895EE0FFF1F0024001C0BBE0790C5
S1132FE0F691E02D0994A29FB001B39FC001A39F65
S1132FF0700D811D1124911DB29F700D811D11242E
S1133000911D0895F0DFA59F900DB49F900DA49F8E
S1133010800D911D112408950F931F93CF93DF9377
S1133020009731F46115710519F480E090E039C01E
S11330308B01EC016EE070E081E090E067D0FC0170
S1133040892B99F380E883830115110571F01387A7
S1133050028781E883838091390A90913A0A892B07
S113306021F4F0933A0AE093390A2097C9F0D18702
S1133070C08783818260838380913B0A90913C0A5C
S1133080892B71F4F0933C0AE0933B0A80913D0A4A
S113309090913E0A892B21F4F0933E0AE0933D0A75
S11330A0CF01DF91CF911F910F9108950F931F933B
S11330B0CF93DF93E0913B0AF0913C0A238121FFF7
S11330C01BC08C01D0E0C0E0F80181918F016091B8
S11330D03B0A70913C0ADB011896ED91FC9119971B
S11330E0882331F00995892B79F3DFEFCFEFECCF0B
S11330F08AE00995892B19F08FEF9FEF02C08D2F7D
S11331009C2FDF91CF911F910F9108950F931F93DF
S1133110CF93DF93869F8001879F100D969F100D9C
S11331201124C8010DD0EC01009721F0A80160E042
S113313070E027D1CE01DF91CF911F910F910895B7
S11331400F931F93CF93DF938230910510F482E0A5
S113315090E0E091410AF091420A20E030E0A0E0E2
S1133160B0E0309719F140815181028113814817F1
S11331705907C8F08417950769F4109731F012962F
S11331800C93129713961C9327C00093410A109333
S1133190420A22C02115310519F04217530718F4C9
S11331A09A01BD01EF01DF01F801DBCF21153105E3
S11331B0F9F0281B390B2430310580F48A819B8176
S11331C06115710521F0FB019383828304C0909300
S11331D0420A8093410AFE01329644C0FE01E20F86
S11331E0F31F8193919322503109398328833AC084
S11331F020913F0A3091400A232B41F4209102018F
S1133200309103013093400A20933F0A209100013A
S1133210309101012115310541F42DB73EB740919C
S1133220040150910501241B350BE0913F0AF091F4
S1133230400AE217F307A0F42E1B3F0B28173907A7
S113324078F0AC014E5F5F4F2417350748F04E0FFE
S11332505F1F5093400A40933F0A8193919302C0A9
S1133260E0E0F0E0CF01DF91CF911F910F9108953D
S1133270CF93DF93009709F481C0FC013297138246
S11332801282A091410AB091420A109781F42081E0
S11332903181820F931F20913F0A3091400A2817F1
S11332A0390751F5F093400AE0933F0A67C0ED01F6
S11332B020E030E0CE17DF0740F44A815B819E01B5
S11332C041155105F1F0EA01F5CFD383C283408162
S11332D05181840F951FC817D90759F488819981A2
S11332E0840F951F0296918380838A819B819383A7
S11332F082832115310529F4F093420AE093410AAF
S11333003DC0E901FB83EA8349915991C40FD51F5C
S1133310EC17FD0761F480819181840F951F02965B
S1133320E90199838883828193819B838A83E0E086
S1133330F0E012968D919C911397009719F0FD017E
S1133340DC01F7CF8D919C9111979D012E5F3F4F2A
S1133350820F931F20913F0A3091400A28173907A2
S113336069F4309729F41092420A1092410A02C07B
S113337013821282B093400AA0933F0ADF91CF9147
S11333800895DC0101C06D9341505040E0F7089569
S1073390F894FFCFDB
S11333940000430A200000060000000000000000B2
S11333A40000000801C0BC1E0195020000FF1F00BC
S11333B4000805C0BC1E0184031815881300000806
S11333C402C0BC1E01FFFFFFFFFFFFD8D6087374C1
S10933D46172740D00009B
S9030000FC
